{
  "transactions": [
    {
      "hash": "0x37cb5b5c88e014082d0ea9ed034ab6d1abb78c7e4fae7b584ac444c4d5afa69a",
      "transactionType": "CALL",
      "contractName": null,
      "contractAddress": "0x7de9a0c146cc6a92f2592c5e4e2331b263de88b1",
      "function": "approve(address,uint256)",
      "arguments": [
        "0xDEC2A229CfDBc512198c19ac63b67BdAAE20f42C",
        "10000000"
      ],
      "transaction": {
        "from": "0x96202ad391545175e026680425db160a5a3cf9e6",
        "to": "0x7de9a0c146cc6a92f2592c5e4e2331b263de88b1",
        "gas": "0xfd03",
        "value": "0x0",
        "input": "0x095ea7b3000000000000000000000000dec2a229cfdbc512198c19ac63b67bdaae20f42c0000000000000000000000000000000000000000000000000000000000989680",
        "nonce": "0x12",
        "chainId": "0x14a34"
      },
      "additionalContracts": [],
      "isFixedGasLimit": false
    },
    {
      "hash": "0x3f87b42f6e41263aeefb03dfa13ff75ec4d2fae744f3e30575074c855c324cbf",
      "transactionType": "CALL",
      "contractName": null,
      "contractAddress": "0xdec2a229cfdbc512198c19ac63b67bdaae20f42c",
      "function": "contribute(uint256,uint256)",
      "arguments": [
        "0",
        "10000000"
      ],
      "transaction": {
        "from": "0x96202ad391545175e026680425db160a5a3cf9e6",
        "to": "0xdec2a229cfdbc512198c19ac63b67bdaae20f42c",
        "gas": "0x3dba7",
        "value": "0x0",
        "input": "0x8c59091700000000000000000000000000000000000000000000000000000000000000000000000000000000000000000000000000000000000000000000000000989680",
        "nonce": "0x13",
        "chainId": "0x14a34"
      },
      "additionalContracts": [],
      "isFixedGasLimit": false
    }
  ],
  "receipts": [
    {
      "status": "0x1",
      "cumulativeGasUsed": "0x764d61",
      "logs": [
        {
          "address": "0x7de9a0c146cc6a92f2592c5e4e2331b263de88b1",
          "topics": [
            "0x8c5be1e5ebec7d5bd14f71427d1e84f3dd0314c0f7b2291e5b200ac8c7c3b925",
            "0x00000000000000000000000096202ad391545175e026680425db160a5a3cf9e6",
            "0x000000000000000000000000dec2a229cfdbc512198c19ac63b67bdaae20f42c"
          ],
          "data": "0x0000000000000000000000000000000000000000000000000000000000989680",
          "blockHash": "0x942b069191438f202efc7100f1e63a58bf5aa49db0d7c4a6d1eae15d33e0bda4",
          "blockNumber": "0x1d00f7b",
          "blockTimestamp": "0x68b37dd6",
          "transactionHash": "0x37cb5b5c88e014082d0ea9ed034ab6d1abb78c7e4fae7b584ac444c4d5afa69a",
          "transactionIndex": "0x10",
          "logIndex": "0x85",
          "removed": false
        }
      ],
      "logsBloom": "0x00000000010000010000000000000000000000004000000000000000000000001000000000000000000000000000000000000000000000000000000000200000000000000000000000000000000000000000000000000000000000000000000000000000000000000040000000000000000020000000000000000000000000000000000000000000000000000000000000000000000000000000000000000000020000000000000000000000000000000010000000000000000000000000000000000000000000000000020000000000000000000000001000000000000000000010000000000000000000000000000000000000000000000000000000000000",
      "type": "0x2",
      "transactionHash": "0x37cb5b5c88e014082d0ea9ed034ab6d1abb78c7e4fae7b584ac444c4d5afa69a",
      "transactionIndex": "0x10",
      "blockHash": "0x942b069191438f202efc7100f1e63a58bf5aa49db0d7c4a6d1eae15d33e0bda4",
      "blockNumber": "0x1d00f7b",
      "gasUsed": "0xb72e",
      "effectiveGasPrice": "0xecd4a",
      "from": "0x96202ad391545175e026680425db160a5a3cf9e6",
      "to": "0x7de9a0c146cc6a92f2592c5e4e2331b263de88b1",
      "contractAddress": null,
      "l1BaseFeeScalar": "0x44d",
      "l1BlobBaseFee": "0x2",
      "l1BlobBaseFeeScalar": "0xa118b",
      "l1Fee": "0x52b14b7",
      "l1GasPrice": "0x2ef110c",
      "l1GasUsed": "0x640"
    },
    {
      "status": "0x1",
      "cumulativeGasUsed": "0x78f0b3",
      "logs": [
        {
          "address": "0x7de9a0c146cc6a92f2592c5e4e2331b263de88b1",
          "topics": [
            "0xddf252ad1be2c89b69c2b068fc378daa952ba7f163c4a11628f55a4df523b3ef",
            "0x00000000000000000000000096202ad391545175e026680425db160a5a3cf9e6",
            "0x000000000000000000000000dec2a229cfdbc512198c19ac63b67bdaae20f42c"
          ],
          "data": "0x0000000000000000000000000000000000000000000000000000000000989680",
          "blockHash": "0x942b069191438f202efc7100f1e63a58bf5aa49db0d7c4a6d1eae15d33e0bda4",
          "blockNumber": "0x1d00f7b",
          "blockTimestamp": "0x68b37dd6",
          "transactionHash": "0x3f87b42f6e41263aeefb03dfa13ff75ec4d2fae744f3e30575074c855c324cbf",
          "transactionIndex": "0x11",
          "logIndex": "0x86",
          "removed": false
        },
        {
          "address": "0x3b9dafb9c20f009b5f9d4f7fefaadfa4d47ba69c",
          "topics": [
            "0xddf252ad1be2c89b69c2b068fc378daa952ba7f163c4a11628f55a4df523b3ef",
            "0x0000000000000000000000000000000000000000000000000000000000000000",
            "0x00000000000000000000000096202ad391545175e026680425db160a5a3cf9e6"
          ],
          "data": "0x0000000000000000000000000000000000000000000000000000000000989680",
          "blockHash": "0x942b069191438f202efc7100f1e63a58bf5aa49db0d7c4a6d1eae15d33e0bda4",
          "blockNumber": "0x1d00f7b",
          "blockTimestamp": "0x68b37dd6",
          "transactionHash": "0x3f87b42f6e41263aeefb03dfa13ff75ec4d2fae744f3e30575074c855c324cbf",
          "transactionIndex": "0x11",
          "logIndex": "0x87",
          "removed": false
        },
        {
          "address": "0xdec2a229cfdbc512198c19ac63b67bdaae20f42c",
          "topics": [
            "0xf9b7589b7a8d939b9da5dae90770378fe5fd7802be5d66432e85bedbdbfbcb7a",
            "0x0000000000000000000000000000000000000000000000000000000000000000",
            "0x00000000000000000000000096202ad391545175e026680425db160a5a3cf9e6"
          ],
          "data": "0x00000000000000000000000000000000000000000000000000000000009896800000000000000000000000000000000000000000000000000000000000989680",
          "blockHash": "0x942b069191438f202efc7100f1e63a58bf5aa49db0d7c4a6d1eae15d33e0bda4",
          "blockNumber": "0x1d00f7b",
          "blockTimestamp": "0x68b37dd6",
          "transactionHash": "0x3f87b42f6e41263aeefb03dfa13ff75ec4d2fae744f3e30575074c855c324cbf",
          "transactionIndex": "0x11",
          "logIndex": "0x88",
          "removed": false
        }
      ],
      "logsBloom": "0x00000000010000010000000000000000000000004000000000000000000000001000000000000000000000000000000000000000080000000000000000000000080000000000000000000008000000000000000040000000004000000000000000000000020000000040000000000800000020000000000000000010000000000000000000000000000010010000000000000000000000000000000000000000000000000000000000000000000000000010000000000000000000000000000000000002000000000000020000000000000200002000001000000000008020000000000000000000000000000000000000000000000000000000000000000000",
      "type": "0x2",
      "transactionHash": "0x3f87b42f6e41263aeefb03dfa13ff75ec4d2fae744f3e30575074c855c324cbf",
      "transactionIndex": "0x11",
      "blockHash": "0x942b069191438f202efc7100f1e63a58bf5aa49db0d7c4a6d1eae15d33e0bda4",
      "blockNumber": "0x1d00f7b",
      "gasUsed": "0x2a352",
      "effectiveGasPrice": "0xecd4a",
      "from": "0x96202ad391545175e026680425db160a5a3cf9e6",
      "to": "0xdec2a229cfdbc512198c19ac63b67bdaae20f42c",
      "contractAddress": null,
      "l1BaseFeeScalar": "0x44d",
      "l1BlobBaseFee": "0x2",
      "l1BlobBaseFeeScalar": "0xa118b",
      "l1Fee": "0x52b14b7",
      "l1GasPrice": "0x2ef110c",
      "l1GasUsed": "0x640"
    }
  ],
  "libraries": [],
  "pending": [],
  "returns": {},
  "timestamp": 1756593621,
  "chain": 84532,
  "commit": "a45e08c8"
}