{
  "transactions": [
    {
      "hash": "0x18124eb354e8d75c685b68723dd23d33c03a962c0d85621aeea9a0c954b752ff",
      "transactionType": "CALL",
      "contractName": null,
      "contractAddress": "0x7de9a0c146cc6a92f2592c5e4e2331b263de88b1",
      "function": "approve(address,uint256)",
      "arguments": [
        "0x6323521927814F819aB99c7C46d75944C77467Ae",
        "5000000"
      ],
      "transaction": {
        "from": "0x96202ad391545175e026680425db160a5a3cf9e6",
        "to": "0x7de9a0c146cc6a92f2592c5e4e2331b263de88b1",
        "gas": "0xfd03",
        "value": "0x0",
        "input": "0x095ea7b30000000000000000000000006323521927814f819ab99c7c46d75944c77467ae00000000000000000000000000000000000000000000000000000000004c4b40",
        "nonce": "0xd",
        "chainId": "0x14a34"
      },
      "additionalContracts": [],
      "isFixedGasLimit": false
    },
    {
      "hash": "0x7c0c15c6f47ba1b99a7aacd2656c8082b8c50b7a44e5b41ba6b0d88f97c473bf",
      "transactionType": "CALL",
      "contractName": null,
      "contractAddress": "0x6323521927814f819ab99c7c46d75944c77467ae",
      "function": "contribute(uint256,uint256)",
      "arguments": [
        "0",
        "5000000"
      ],
      "transaction": {
        "from": "0x96202ad391545175e026680425db160a5a3cf9e6",
        "to": "0x6323521927814f819ab99c7c46d75944c77467ae",
        "gas": "0x3d9a4",
        "value": "0x0",
        "input": "0x8c590917000000000000000000000000000000000000000000000000000000000000000000000000000000000000000000000000000000000000000000000000004c4b40",
        "nonce": "0xe",
        "chainId": "0x14a34"
      },
      "additionalContracts": [],
      "isFixedGasLimit": false
    }
  ],
  "receipts": [
    {
      "status": "0x1",
      "cumulativeGasUsed": "0xa97e0",
      "logs": [
        {
          "address": "0x7de9a0c146cc6a92f2592c5e4e2331b263de88b1",
          "topics": [
            "0x8c5be1e5ebec7d5bd14f71427d1e84f3dd0314c0f7b2291e5b200ac8c7c3b925",
            "0x00000000000000000000000096202ad391545175e026680425db160a5a3cf9e6",
            "0x0000000000000000000000006323521927814f819ab99c7c46d75944c77467ae"
          ],
          "data": "0x00000000000000000000000000000000000000000000000000000000004c4b40",
          "blockHash": "0xef6b54b4b9f3d5a89ab7b3b2b2f6274628e62a6df222677ed7c7f93dd75869a8",
          "blockNumber": "0x1cff964",
          "blockTimestamp": "0x68b351a8",
          "transactionHash": "0x18124eb354e8d75c685b68723dd23d33c03a962c0d85621aeea9a0c954b752ff",
          "transactionIndex": "0x5",
          "logIndex": "0x6",
          "removed": false
        }
      ],
      "logsBloom": "0x00000000010000010000000000000000000000004000000000000000000000001000000000000000000000000000000000000000000000000000000000200000010000000000000000000000000000000000000000000000000000002000000000000000000000000000000000000000000020000000000000000000000000000000000000000000000000000000000000000000000000000000000000000000020000000000000000000000000000000000000000000000000000000000000000000000000000000000000000000080000000000000001000000000000000000010000000000000000000000000000000000000000000000000000000000000",
      "type": "0x2",
      "transactionHash": "0x18124eb354e8d75c685b68723dd23d33c03a962c0d85621aeea9a0c954b752ff",
      "transactionIndex": "0x5",
      "blockHash": "0xef6b54b4b9f3d5a89ab7b3b2b2f6274628e62a6df222677ed7c7f93dd75869a8",
      "blockNumber": "0x1cff964",
      "gasUsed": "0xb72e",
      "effectiveGasPrice": "0xf428e",
      "from": "0x96202ad391545175e026680425db160a5a3cf9e6",
      "to": "0x7de9a0c146cc6a92f2592c5e4e2331b263de88b1",
      "contractAddress": null,
      "l1BaseFeeScalar": "0x44d",
      "l1BlobBaseFee": "0x1",
      "l1BlobBaseFeeScalar": "0xa118b",
      "l1Fee": "0x9c99940",
      "l1GasPrice": "0x58e578c",
      "l1GasUsed": "0x640"
    },
    {
      "status": "0x1",
      "cumulativeGasUsed": "0xd39d2",
      "logs": [
        {
          "address": "0x7de9a0c146cc6a92f2592c5e4e2331b263de88b1",
          "topics": [
            "0xddf252ad1be2c89b69c2b068fc378daa952ba7f163c4a11628f55a4df523b3ef",
            "0x00000000000000000000000096202ad391545175e026680425db160a5a3cf9e6",
            "0x0000000000000000000000006323521927814f819ab99c7c46d75944c77467ae"
          ],
          "data": "0x00000000000000000000000000000000000000000000000000000000004c4b40",
          "blockHash": "0x2b106fdca5b61a3fc571b3364176ad68c955b18ac7db14364d1c0f138389549b",
          "blockNumber": "0x1cff964",
          "blockTimestamp": "0x68b351a8",
          "transactionHash": "0x7c0c15c6f47ba1b99a7aacd2656c8082b8c50b7a44e5b41ba6b0d88f97c473bf",
          "transactionIndex": "0x6",
          "logIndex": "0x7",
          "removed": false
        },
        {
          "address": "0x9df184226612937a035d5bc226b604ec72dc6d2b",
          "topics": [
            "0xddf252ad1be2c89b69c2b068fc378daa952ba7f163c4a11628f55a4df523b3ef",
            "0x0000000000000000000000000000000000000000000000000000000000000000",
            "0x00000000000000000000000096202ad391545175e026680425db160a5a3cf9e6"
          ],
          "data": "0x00000000000000000000000000000000000000000000000000000000004c4b40",
          "blockHash": "0x2b106fdca5b61a3fc571b3364176ad68c955b18ac7db14364d1c0f138389549b",
          "blockNumber": "0x1cff964",
          "blockTimestamp": "0x68b351a8",
          "transactionHash": "0x7c0c15c6f47ba1b99a7aacd2656c8082b8c50b7a44e5b41ba6b0d88f97c473bf",
          "transactionIndex": "0x6",
          "logIndex": "0x8",
          "removed": false
        },
        {
          "address": "0x6323521927814f819ab99c7c46d75944c77467ae",
          "topics": [
            "0xf9b7589b7a8d939b9da5dae90770378fe5fd7802be5d66432e85bedbdbfbcb7a",
            "0x0000000000000000000000000000000000000000000000000000000000000000",
            "0x00000000000000000000000096202ad391545175e026680425db160a5a3cf9e6"
          ],
          "data": "0x00000000000000000000000000000000000000000000000000000000004c4b4000000000000000000000000000000000000000000000000000000000004c4b40",
          "blockHash": "0x2b106fdca5b61a3fc571b3364176ad68c955b18ac7db14364d1c0f138389549b",
          "blockNumber": "0x1cff964",
          "blockTimestamp": "0x68b351a8",
          "transactionHash": "0x7c0c15c6f47ba1b99a7aacd2656c8082b8c50b7a44e5b41ba6b0d88f97c473bf",
          "transactionIndex": "0x6",
          "logIndex": "0x9",
          "removed": false
        }
      ],
      "logsBloom": "0x00000000010000010000000000000000000000004000000000000000000000001000000000000000000000000000000000008000000000000000000000000000090000000000000000000008000000000000000000000000000000002000000000000200020000000000000000000800000020000000000000000010000000000000000100000000000000000000000000000000000000000000000000000000000000000000000000000000000000000000000000000000000000000000000000000002000000400000000000000080000200002000001000000000000030000000000000000000000000000000000000000000000000000000100000000000",
      "type": "0x2",
      "transactionHash": "0x7c0c15c6f47ba1b99a7aacd2656c8082b8c50b7a44e5b41ba6b0d88f97c473bf",
      "transactionIndex": "0x6",
      "blockHash": "0x2b106fdca5b61a3fc571b3364176ad68c955b18ac7db14364d1c0f138389549b",
      "blockNumber": "0x1cff964",
      "gasUsed": "0x2a1f2",
      "effectiveGasPrice": "0xf428e",
      "from": "0x96202ad391545175e026680425db160a5a3cf9e6",
      "to": "0x6323521927814f819ab99c7c46d75944c77467ae",
      "contractAddress": null,
      "l1BaseFeeScalar": "0x44d",
      "l1BlobBaseFee": "0x1",
      "l1BlobBaseFeeScalar": "0xa118b",
      "l1Fee": "0x9c99940",
      "l1GasPrice": "0x58e578c",
      "l1GasUsed": "0x640"
    }
  ],
  "libraries": [],
  "pending": [],
  "returns": {},
  "timestamp": 1756582311,
  "chain": 84532,
  "commit": "a5bdd31d"
}