{
  "transactions": [
    {
      "hash": "0x0164dce20f372372f7da506dea68b977bcd75fd2c9bc7e36972e9c3be779d20e",
      "transactionType": "CALL",
      "contractName": null,
      "contractAddress": "0x036cbd53842c5426634e7929541ec2318f3dcf7e",
      "function": "approve(address,uint256)",
      "arguments": [
        "0x9df821771376a87c7e6d3a9F210C962B406722FF",
        "1000000"
      ],
      "transaction": {
        "from": "0x96202ad391545175e026680425db160a5a3cf9e6",
        "to": "0x036cbd53842c5426634e7929541ec2318f3dcf7e",
        "gas": "0x12b1b",
        "value": "0x0",
        "input": "0x095ea7b30000000000000000000000009df821771376a87c7e6d3a9f210c962b406722ff00000000000000000000000000000000000000000000000000000000000f4240",
        "nonce": "0x2a",
        "chainId": "0x14a34"
      },
      "additionalContracts": [],
      "isFixedGasLimit": false
    },
    {
      "hash": "0xe01dc48b382f7d5fb06ec11c5db1bfad506f8d7853831d5590092059a1b5c424",
      "transactionType": "CALL",
      "contractName": null,
      "contractAddress": "0x9df821771376a87c7e6d3a9f210c962b406722ff",
      "function": "contribute(uint256,uint256)",
      "arguments": [
        "0",
        "1000000"
      ],
      "transaction": {
        "from": "0x96202ad391545175e026680425db160a5a3cf9e6",
        "to": "0x9df821771376a87c7e6d3a9f210c962b406722ff",
        "gas": "0x3db07",
        "value": "0x0",
        "input": "0x8c590917000000000000000000000000000000000000000000000000000000000000000000000000000000000000000000000000000000000000000000000000000f4240",
        "nonce": "0x2b",
        "chainId": "0x14a34"
      },
      "additionalContracts": [],
      "isFixedGasLimit": false
    }
  ],
  "receipts": [
    {
      "status": "0x1",
      "cumulativeGasUsed": "0x7370bb",
      "logs": [
        {
          "address": "0x036cbd53842c5426634e7929541ec2318f3dcf7e",
          "topics": [
            "0x8c5be1e5ebec7d5bd14f71427d1e84f3dd0314c0f7b2291e5b200ac8c7c3b925",
            "0x00000000000000000000000096202ad391545175e026680425db160a5a3cf9e6",
            "0x0000000000000000000000009df821771376a87c7e6d3a9f210c962b406722ff"
          ],
          "data": "0x00000000000000000000000000000000000000000000000000000000000f4240",
          "blockHash": "0xdefe91a68e5ecc65437af9d095848a1649976b881e28f3a32f4004b2780a796a",
          "blockNumber": "0x1d07667",
          "blockTimestamp": "0x68b44bae",
          "transactionHash": "0x0164dce20f372372f7da506dea68b977bcd75fd2c9bc7e36972e9c3be779d20e",
          "transactionIndex": "0x8",
          "logIndex": "0x54",
          "removed": false
        }
      ],
      "logsBloom": "0x00000000050000010000000000000000000000000000000000000000000000000000000800000000000000000000000000000000000000000000000000200000000000000000000000000000000000000000000000000010000000000000000800000000000000000000000000000000000000000000000000000000000000000000000000000000000000000000000000000000000000000000000000000000020000000000000000000000000000000000000000000000000000000000000000000000000000000000000000000000000000000000001000000000008000000010000000000000000000000020000000000000000000000000000000000000",
      "type": "0x2",
      "transactionHash": "0x0164dce20f372372f7da506dea68b977bcd75fd2c9bc7e36972e9c3be779d20e",
      "transactionIndex": "0x8",
      "blockHash": "0xdefe91a68e5ecc65437af9d095848a1649976b881e28f3a32f4004b2780a796a",
      "blockNumber": "0x1d07667",
      "gasUsed": "0xd88d",
      "effectiveGasPrice": "0xf428d",
      "from": "0x96202ad391545175e026680425db160a5a3cf9e6",
      "to": "0x036cbd53842c5426634e7929541ec2318f3dcf7e",
      "contractAddress": null,
      "l1BaseFeeScalar": "0x44d",
      "l1BlobBaseFee": "0x1",
      "l1BlobBaseFeeScalar": "0xa118b",
      "l1Fee": "0x6a2332",
      "l1GasPrice": "0x3c4003",
      "l1GasUsed": "0x640"
    },
    {
      "status": "0x1",
      "cumulativeGasUsed": "0x763b53",
      "logs": [
        {
          "address": "0x036cbd53842c5426634e7929541ec2318f3dcf7e",
          "topics": [
            "0xddf252ad1be2c89b69c2b068fc378daa952ba7f163c4a11628f55a4df523b3ef",
            "0x00000000000000000000000096202ad391545175e026680425db160a5a3cf9e6",
            "0x0000000000000000000000009df821771376a87c7e6d3a9f210c962b406722ff"
          ],
          "data": "0x00000000000000000000000000000000000000000000000000000000000f4240",
          "blockHash": "0x465061bb1bff78c73a0c17a379d2ef2b0b0641074f7fa63531c4534b8db9dbc5",
          "blockNumber": "0x1d07667",
          "blockTimestamp": "0x68b44bae",
          "transactionHash": "0xe01dc48b382f7d5fb06ec11c5db1bfad506f8d7853831d5590092059a1b5c424",
          "transactionIndex": "0x9",
          "logIndex": "0x55",
          "removed": false
        },
        {
          "address": "0xdf55e5874b9194c731e7e8c3cb160a544f70d82f",
          "topics": [
            "0xddf252ad1be2c89b69c2b068fc378daa952ba7f163c4a11628f55a4df523b3ef",
            "0x0000000000000000000000000000000000000000000000000000000000000000",
            "0x00000000000000000000000096202ad391545175e026680425db160a5a3cf9e6"
          ],
          "data": "0x0000000000000000000000000000000000000000000000000de0b6b3a7640000",
          "blockHash": "0x465061bb1bff78c73a0c17a379d2ef2b0b0641074f7fa63531c4534b8db9dbc5",
          "blockNumber": "0x1d07667",
          "blockTimestamp": "0x68b44bae",
          "transactionHash": "0xe01dc48b382f7d5fb06ec11c5db1bfad506f8d7853831d5590092059a1b5c424",
          "transactionIndex": "0x9",
          "logIndex": "0x56",
          "removed": false
        },
        {
          "address": "0x9df821771376a87c7e6d3a9f210c962b406722ff",
          "topics": [
            "0xf9b7589b7a8d939b9da5dae90770378fe5fd7802be5d66432e85bedbdbfbcb7a",
            "0x0000000000000000000000000000000000000000000000000000000000000000",
            "0x00000000000000000000000096202ad391545175e026680425db160a5a3cf9e6"
          ],
          "data": "0x00000000000000000000000000000000000000000000000000000000000f42400000000000000000000000000000000000000000000000000de0b6b3a7640000",
          "blockHash": "0x465061bb1bff78c73a0c17a379d2ef2b0b0641074f7fa63531c4534b8db9dbc5",
          "blockNumber": "0x1d07667",
          "blockTimestamp": "0x68b44bae",
          "transactionHash": "0xe01dc48b382f7d5fb06ec11c5db1bfad506f8d7853831d5590092059a1b5c424",
          "transactionIndex": "0x9",
          "logIndex": "0x57",
          "removed": false
        }
      ],
      "logsBloom": "0x00000000050000010000000000000000000000000000000000000000000000000000000800000000000000000000000000000000000000000000000000000000180000000000000000000008000000000000000000000010000000000000000800000000020000000000000001000800000000000000000000000010000000000000000000000000000000000000000000000000000000000000080000000000000000000000000000000800000000000000000000000000080000000000000000000002000000000200000000000000000200002000001000000000008020000000000000000000000000000020000000000000000000000000000000000000",
      "type": "0x2",
      "transactionHash": "0xe01dc48b382f7d5fb06ec11c5db1bfad506f8d7853831d5590092059a1b5c424",
      "transactionIndex": "0x9",
      "blockHash": "0x465061bb1bff78c73a0c17a379d2ef2b0b0641074f7fa63531c4534b8db9dbc5",
      "blockNumber": "0x1d07667",
      "gasUsed": "0x2ca98",
      "effectiveGasPrice": "0xf428d",
      "from": "0x96202ad391545175e026680425db160a5a3cf9e6",
      "to": "0x9df821771376a87c7e6d3a9f210c962b406722ff",
      "contractAddress": null,
      "l1BaseFeeScalar": "0x44d",
      "l1BlobBaseFee": "0x1",
      "l1BlobBaseFeeScalar": "0xa118b",
      "l1Fee": "0x6a2332",
      "l1GasPrice": "0x3c4003",
      "l1GasUsed": "0x640"
    }
  ],
  "libraries": [],
  "pending": [],
  "returns": {},
  "timestamp": 1756646318,
  "chain": 84532,
  "commit": "8e3ef69e"
}