{
  "transactions": [
    {
      "hash": "0x268ea9f524a1a1469ffbb0e147cd1337c51c901985dc8d122ceb977e82f7937b",
      "transactionType": "CALL",
      "contractName": null,
      "contractAddress": "0x7de9a0c146cc6a92f2592c5e4e2331b263de88b1",
      "function": "approve(address,uint256)",
      "arguments": [
        "0x392286B5fA09257F356080C9edbC70212D527776",
        "5000000"
      ],
      "transaction": {
        "from": "0x96202ad391545175e026680425db160a5a3cf9e6",
        "to": "0x7de9a0c146cc6a92f2592c5e4e2331b263de88b1",
        "gas": "0xfd03",
        "value": "0x0",
        "input": "0x095ea7b3000000000000000000000000392286b5fa09257f356080c9edbc70212d52777600000000000000000000000000000000000000000000000000000000004c4b40",
        "nonce": "0x1e",
        "chainId": "0x14a34"
      },
      "additionalContracts": [],
      "isFixedGasLimit": false
    },
    {
      "hash": "0x574c6b845db30662509e2b56624fcda7f690c197d827ada4d1b1221f3b2994a3",
      "transactionType": "CALL",
      "contractName": null,
      "contractAddress": "0x392286b5fa09257f356080c9edbc70212d527776",
      "function": "contribute(uint256,uint256)",
      "arguments": [
        "0",
        "5000000"
      ],
      "transaction": {
        "from": "0x96202ad391545175e026680425db160a5a3cf9e6",
        "to": "0x392286b5fa09257f356080c9edbc70212d527776",
        "gas": "0x3e7dc",
        "value": "0x0",
        "input": "0x8c590917000000000000000000000000000000000000000000000000000000000000000000000000000000000000000000000000000000000000000000000000004c4b40",
        "nonce": "0x1f",
        "chainId": "0x14a34"
      },
      "additionalContracts": [],
      "isFixedGasLimit": false
    }
  ],
  "receipts": [
    {
      "status": "0x1",
      "cumulativeGasUsed": "0x139e119",
      "logs": [
        {
          "address": "0x7de9a0c146cc6a92f2592c5e4e2331b263de88b1",
          "topics": [
            "0x8c5be1e5ebec7d5bd14f71427d1e84f3dd0314c0f7b2291e5b200ac8c7c3b925",
            "0x00000000000000000000000096202ad391545175e026680425db160a5a3cf9e6",
            "0x000000000000000000000000392286b5fa09257f356080c9edbc70212d527776"
          ],
          "data": "0x00000000000000000000000000000000000000000000000000000000004c4b40",
          "blockHash": "0xce71d09f98e768ae746d1a73067cdc261d2597694d9bead3105dfbebd228aae9",
          "blockNumber": "0x1d06935",
          "blockTimestamp": "0x68b4314a",
          "transactionHash": "0x268ea9f524a1a1469ffbb0e147cd1337c51c901985dc8d122ceb977e82f7937b",
          "transactionIndex": "0x17",
          "logIndex": "0x21c",
          "removed": false
        }
      ],
      "logsBloom": "0x00000000010000010000000000000000000000004000000000000000400000001000000000000000000000000000000000000000000000000000000000200000000000000000000000000000000000000000000000000000000000000000000000000000000000000000000000000000000020000000000000000000000000000000000000000000000000000000000000000000000000000000000000000000020000000000000000000000000000000000000000000000000000000000000000000000000000000000000000000000800000000000001000000000000000000010000000000000000000000000000000000000000000000000040000000000",
      "type": "0x2",
      "transactionHash": "0x268ea9f524a1a1469ffbb0e147cd1337c51c901985dc8d122ceb977e82f7937b",
      "transactionIndex": "0x17",
      "blockHash": "0xce71d09f98e768ae746d1a73067cdc261d2597694d9bead3105dfbebd228aae9",
      "blockNumber": "0x1d06935",
      "gasUsed": "0xb72e",
      "effectiveGasPrice": "0xf4286",
      "from": "0x96202ad391545175e026680425db160a5a3cf9e6",
      "to": "0x7de9a0c146cc6a92f2592c5e4e2331b263de88b1",
      "contractAddress": null,
      "l1BaseFeeScalar": "0x44d",
      "l1BlobBaseFee": "0x1",
      "l1BlobBaseFeeScalar": "0xa118b",
      "l1Fee": "0xcfb55c",
      "l1GasPrice": "0x75e88d",
      "l1GasUsed": "0x640"
    },
    {
      "status": "0x1",
      "cumulativeGasUsed": "0x13c8cc4",
      "logs": [
        {
          "address": "0x7de9a0c146cc6a92f2592c5e4e2331b263de88b1",
          "topics": [
            "0xddf252ad1be2c89b69c2b068fc378daa952ba7f163c4a11628f55a4df523b3ef",
            "0x00000000000000000000000096202ad391545175e026680425db160a5a3cf9e6",
            "0x000000000000000000000000392286b5fa09257f356080c9edbc70212d527776"
          ],
          "data": "0x00000000000000000000000000000000000000000000000000000000004c4b40",
          "blockHash": "0xce71d09f98e768ae746d1a73067cdc261d2597694d9bead3105dfbebd228aae9",
          "blockNumber": "0x1d06935",
          "blockTimestamp": "0x68b4314a",
          "transactionHash": "0x574c6b845db30662509e2b56624fcda7f690c197d827ada4d1b1221f3b2994a3",
          "transactionIndex": "0x18",
          "logIndex": "0x21d",
          "removed": false
        },
        {
          "address": "0xafc21ab8b277901a443cb151a05fcde93cae9fb8",
          "topics": [
            "0xddf252ad1be2c89b69c2b068fc378daa952ba7f163c4a11628f55a4df523b3ef",
            "0x0000000000000000000000000000000000000000000000000000000000000000",
            "0x00000000000000000000000096202ad391545175e026680425db160a5a3cf9e6"
          ],
          "data": "0x0000000000000000000000000000000000000000000000004563918244f40000",
          "blockHash": "0xce71d09f98e768ae746d1a73067cdc261d2597694d9bead3105dfbebd228aae9",
          "blockNumber": "0x1d06935",
          "blockTimestamp": "0x68b4314a",
          "transactionHash": "0x574c6b845db30662509e2b56624fcda7f690c197d827ada4d1b1221f3b2994a3",
          "transactionIndex": "0x18",
          "logIndex": "0x21e",
          "removed": false
        },
        {
          "address": "0x392286b5fa09257f356080c9edbc70212d527776",
          "topics": [
            "0xf9b7589b7a8d939b9da5dae90770378fe5fd7802be5d66432e85bedbdbfbcb7a",
            "0x0000000000000000000000000000000000000000000000000000000000000000",
            "0x00000000000000000000000096202ad391545175e026680425db160a5a3cf9e6"
          ],
          "data": "0x00000000000000000000000000000000000000000000000000000000004c4b400000000000000000000000000000000000000000000000004563918244f40000",
          "blockHash": "0xce71d09f98e768ae746d1a73067cdc261d2597694d9bead3105dfbebd228aae9",
          "blockNumber": "0x1d06935",
          "blockTimestamp": "0x68b4314a",
          "transactionHash": "0x574c6b845db30662509e2b56624fcda7f690c197d827ada4d1b1221f3b2994a3",
          "transactionIndex": "0x18",
          "logIndex": "0x21f",
          "removed": false
        }
      ],
      "logsBloom": "0x000000000100000100000000000000000000000040000000000000004000000010000000000000000000000000000000000000000000000000000000000000000a0000000000000000000008000000000000000000000000000100000000000000000000020000000000000000000800000020000000000000000010000000000000000000000200001000000000000000000000000000000000000000000000000000000000000000000000000000000000000000000000000000000000000000800002000000020000000000000000800200002000001000000000000020000000000000000000000000000000000000000000000000000000040000000000",
      "type": "0x2",
      "transactionHash": "0x574c6b845db30662509e2b56624fcda7f690c197d827ada4d1b1221f3b2994a3",
      "transactionIndex": "0x18",
      "blockHash": "0xce71d09f98e768ae746d1a73067cdc261d2597694d9bead3105dfbebd228aae9",
      "blockNumber": "0x1d06935",
      "gasUsed": "0x2abab",
      "effectiveGasPrice": "0xf4286",
      "from": "0x96202ad391545175e026680425db160a5a3cf9e6",
      "to": "0x392286b5fa09257f356080c9edbc70212d527776",
      "contractAddress": null,
      "l1BaseFeeScalar": "0x44d",
      "l1BlobBaseFee": "0x1",
      "l1BlobBaseFeeScalar": "0xa118b",
      "l1Fee": "0xcfb55c",
      "l1GasPrice": "0x75e88d",
      "l1GasUsed": "0x640"
    }
  ],
  "libraries": [],
  "pending": [],
  "returns": {},
  "timestamp": 1756639561,
  "chain": 84532,
  "commit": "5fbb72e2"
}