{
  "transactions": [
    {
      "hash": "0xdbca1419d84f7480c30105979b7100395566eaedf5c124f84d9f757deb0bdf2f",
      "transactionType": "CALL",
      "contractName": null,
      "contractAddress": "0x7de9a0c146cc6a92f2592c5e4e2331b263de88b1",
      "function": "approve(address,uint256)",
      "arguments": [
        "0x89dd97893d019bF026D494757497B8c82876cFDE",
        "5000000"
      ],
      "transaction": {
        "from": "0x96202ad391545175e026680425db160a5a3cf9e6",
        "to": "0x7de9a0c146cc6a92f2592c5e4e2331b263de88b1",
        "gas": "0xfd03",
        "value": "0x0",
        "input": "0x095ea7b300000000000000000000000089dd97893d019bf026d494757497b8c82876cfde00000000000000000000000000000000000000000000000000000000004c4b40",
        "nonce": "0x19",
        "chainId": "0x14a34"
      },
      "additionalContracts": [],
      "isFixedGasLimit": false
    },
    {
      "hash": "0x16332f2e2c4f56c0e74fc5292616e5ed99bf3fd332cf9cff24db39ab688fef56",
      "transactionType": "CALL",
      "contractName": null,
      "contractAddress": "0x89dd97893d019bf026d494757497b8c82876cfde",
      "function": "contribute(uint256,uint256)",
      "arguments": [
        "0",
        "5000000"
      ],
      "transaction": {
        "from": "0x96202ad391545175e026680425db160a5a3cf9e6",
        "to": "0x89dd97893d019bf026d494757497b8c82876cfde",
        "gas": "0x3b011",
        "value": "0x0",
        "input": "0x8c590917000000000000000000000000000000000000000000000000000000000000000000000000000000000000000000000000000000000000000000000000004c4b40",
        "nonce": "0x1a",
        "chainId": "0x14a34"
      },
      "additionalContracts": [],
      "isFixedGasLimit": false
    }
  ],
  "receipts": [
    {
      "status": "0x1",
      "cumulativeGasUsed": "0x2802f8",
      "logs": [
        {
          "address": "0x7de9a0c146cc6a92f2592c5e4e2331b263de88b1",
          "topics": [
            "0x8c5be1e5ebec7d5bd14f71427d1e84f3dd0314c0f7b2291e5b200ac8c7c3b925",
            "0x00000000000000000000000096202ad391545175e026680425db160a5a3cf9e6",
            "0x00000000000000000000000089dd97893d019bf026d494757497b8c82876cfde"
          ],
          "data": "0x00000000000000000000000000000000000000000000000000000000004c4b40",
          "blockHash": "0x1ceb911d082dfe5853af4c7c0f7593cfd710a9a564a6cba83a64e9ccbc6fa1eb",
          "blockNumber": "0x1d019cf",
          "blockTimestamp": "0x68b3927e",
          "transactionHash": "0xdbca1419d84f7480c30105979b7100395566eaedf5c124f84d9f757deb0bdf2f",
          "transactionIndex": "0xc",
          "logIndex": "0x4e",
          "removed": false
        }
      ],
      "logsBloom": "0x00000000010000010200000000000000000000004000000000000000000000001000000000000000000000000000000000000000000000000000000000200008000000000000000000000000000000000000000000000000000000000000000000000000000000000000000000000000000020000000000000000000000000000000000000000000000000000000000000000000000000000000000000000000020010000000000000000000000000000000000000000000000000000000000000000000000000000000000000000000000000000000001000000000000000000010000000000000000000000000000000000000000000000000000000000000",
      "type": "0x2",
      "transactionHash": "0xdbca1419d84f7480c30105979b7100395566eaedf5c124f84d9f757deb0bdf2f",
      "transactionIndex": "0xc",
      "blockHash": "0x1ceb911d082dfe5853af4c7c0f7593cfd710a9a564a6cba83a64e9ccbc6fa1eb",
      "blockNumber": "0x1d019cf",
      "gasUsed": "0xb72e",
      "effectiveGasPrice": "0xf427a",
      "from": "0x96202ad391545175e026680425db160a5a3cf9e6",
      "to": "0x7de9a0c146cc6a92f2592c5e4e2331b263de88b1",
      "contractAddress": null,
      "l1BaseFeeScalar": "0x44d",
      "l1BlobBaseFee": "0x1",
      "l1BlobBaseFeeScalar": "0xa118b",
      "l1Fee": "0x4e322a",
      "l1GasPrice": "0x2c637b",
      "l1GasUsed": "0x640"
    },
    {
      "status": "0x1",
      "cumulativeGasUsed": "0x2aae76",
      "logs": [
        {
          "address": "0x7de9a0c146cc6a92f2592c5e4e2331b263de88b1",
          "topics": [
            "0xddf252ad1be2c89b69c2b068fc378daa952ba7f163c4a11628f55a4df523b3ef",
            "0x00000000000000000000000096202ad391545175e026680425db160a5a3cf9e6",
            "0x00000000000000000000000089dd97893d019bf026d494757497b8c82876cfde"
          ],
          "data": "0x00000000000000000000000000000000000000000000000000000000004c4b40",
          "blockHash": "0x1ceb911d082dfe5853af4c7c0f7593cfd710a9a564a6cba83a64e9ccbc6fa1eb",
          "blockNumber": "0x1d019cf",
          "blockTimestamp": "0x68b3927e",
          "transactionHash": "0x16332f2e2c4f56c0e74fc5292616e5ed99bf3fd332cf9cff24db39ab688fef56",
          "transactionIndex": "0xd",
          "logIndex": "0x4f",
          "removed": false
        },
        {
          "address": "0x15c12eeb5853bb75737fb0fcf34fe8f09de49ee1",
          "topics": [
            "0xddf252ad1be2c89b69c2b068fc378daa952ba7f163c4a11628f55a4df523b3ef",
            "0x0000000000000000000000000000000000000000000000000000000000000000",
            "0x00000000000000000000000096202ad391545175e026680425db160a5a3cf9e6"
          ],
          "data": "0x0000000000000000000000000000000000000000000000004563918244f40000",
          "blockHash": "0x1ceb911d082dfe5853af4c7c0f7593cfd710a9a564a6cba83a64e9ccbc6fa1eb",
          "blockNumber": "0x1d019cf",
          "blockTimestamp": "0x68b3927e",
          "transactionHash": "0x16332f2e2c4f56c0e74fc5292616e5ed99bf3fd332cf9cff24db39ab688fef56",
          "transactionIndex": "0xd",
          "logIndex": "0x50",
          "removed": false
        },
        {
          "address": "0x89dd97893d019bf026d494757497b8c82876cfde",
          "topics": [
            "0xf9b7589b7a8d939b9da5dae90770378fe5fd7802be5d66432e85bedbdbfbcb7a",
            "0x0000000000000000000000000000000000000000000000000000000000000000",
            "0x00000000000000000000000096202ad391545175e026680425db160a5a3cf9e6"
          ],
          "data": "0x00000000000000000000000000000000000000000000000000000000004c4b400000000000000000000000000000000000000000000000004563918244f40000",
          "blockHash": "0x1ceb911d082dfe5853af4c7c0f7593cfd710a9a564a6cba83a64e9ccbc6fa1eb",
          "blockNumber": "0x1d019cf",
          "blockTimestamp": "0x68b3927e",
          "transactionHash": "0x16332f2e2c4f56c0e74fc5292616e5ed99bf3fd332cf9cff24db39ab688fef56",
          "transactionIndex": "0xd",
          "logIndex": "0x51",
          "removed": false
        }
      ],
      "logsBloom": "0x00000000010000010200000000000000000000004000000040000000000000001000000020000000000000000000000000000000000000000000000000000008080000000000000000000008000000000000000000000000000000000000000000000000020000000000000000000800000020410000000000000010000000000000000000000000000000000000000000000000000000000000000000000000000010000000000000000000000100000000000000000000000000010000000000000002000000000000000000000000000200002000001000000000000020000000000000000000000000000000000000000000000000000000000000000000",
      "type": "0x2",
      "transactionHash": "0x16332f2e2c4f56c0e74fc5292616e5ed99bf3fd332cf9cff24db39ab688fef56",
      "transactionIndex": "0xd",
      "blockHash": "0x1ceb911d082dfe5853af4c7c0f7593cfd710a9a564a6cba83a64e9ccbc6fa1eb",
      "blockNumber": "0x1d019cf",
      "gasUsed": "0x2ab7e",
      "effectiveGasPrice": "0xf427a",
      "from": "0x96202ad391545175e026680425db160a5a3cf9e6",
      "to": "0x89dd97893d019bf026d494757497b8c82876cfde",
      "contractAddress": null,
      "l1BaseFeeScalar": "0x44d",
      "l1BlobBaseFee": "0x1",
      "l1BlobBaseFeeScalar": "0xa118b",
      "l1Fee": "0x4e322a",
      "l1GasPrice": "0x2c637b",
      "l1GasUsed": "0x640"
    }
  ],
  "libraries": [],
  "pending": [],
  "returns": {},
  "timestamp": 1756598909,
  "chain": 84532,
  "commit": "e4ee1003"
}