{
  "transactions": [
    {
      "hash": "0x11a35c35819e0fa64bfe987d1039049ba3ad11acc9bf44ba8a6b9d0308d5d926",
      "transactionType": "CALL",
      "contractName": null,
      "contractAddress": "0xc8310baa6444e135f7bc54d698f0ee32fa0621a3",
      "function": "approve(address,uint256)",
      "arguments": [
        "0xFd515d43FE2Ec09275faD7940147BCeB3B400ae6",
        "100000000"
      ],
      "transaction": {
        "from": "0x96202ad391545175e026680425db160a5a3cf9e6",
        "to": "0xc8310baa6444e135f7bc54d698f0ee32fa0621a3",
        "gas": "0xfd22",
        "value": "0x0",
        "input": "0x095ea7b3000000000000000000000000fd515d43fe2ec09275fad7940147bceb3b400ae60000000000000000000000000000000000000000000000000000000005f5e100",
        "nonce": "0x36",
        "chainId": "0x14a34"
      },
      "additionalContracts": [],
      "isFixedGasLimit": false
    },
    {
      "hash": "0xae9ab77cec852038cb235803166b95c0fd658be799d9a278c234cb0b02304783",
      "transactionType": "CALL",
      "contractName": null,
      "contractAddress": "0xfd515d43fe2ec09275fad7940147bceb3b400ae6",
      "function": "contribute(uint256,uint256)",
      "arguments": [
        "0",
        "100000000"
      ],
      "transaction": {
        "from": "0x96202ad391545175e026680425db160a5a3cf9e6",
        "to": "0xfd515d43fe2ec09275fad7940147bceb3b400ae6",
        "gas": "0x481fb",
        "value": "0x0",
        "input": "0x8c59091700000000000000000000000000000000000000000000000000000000000000000000000000000000000000000000000000000000000000000000000005f5e100",
        "nonce": "0x37",
        "chainId": "0x14a34"
      },
      "additionalContracts": [],
      "isFixedGasLimit": false
    }
  ],
  "receipts": [
    {
      "status": "0x1",
      "cumulativeGasUsed": "0x20ec11",
      "logs": [
        {
          "address": "0xc8310baa6444e135f7bc54d698f0ee32fa0621a3",
          "topics": [
            "0x8c5be1e5ebec7d5bd14f71427d1e84f3dd0314c0f7b2291e5b200ac8c7c3b925",
            "0x00000000000000000000000096202ad391545175e026680425db160a5a3cf9e6",
            "0x000000000000000000000000fd515d43fe2ec09275fad7940147bceb3b400ae6"
          ],
          "data": "0x0000000000000000000000000000000000000000000000000000000005f5e100",
          "blockHash": "0x5ea77580ae25a642e032bed8ebd1426848b43fefe8852936454dd2d47ae14f41",
          "blockNumber": "0x1da9df4",
          "blockTimestamp": "0x68c89ac8",
          "transactionHash": "0x11a35c35819e0fa64bfe987d1039049ba3ad11acc9bf44ba8a6b9d0308d5d926",
          "transactionIndex": "0x8",
          "logIndex": "0x3d",
          "removed": false
        }
      ],
      "logsBloom": "0x00000000010000010000000000000000000000000000000000000000000000000000000000000000000000020000000000000000000001000000000000200000000000000000000000000000000000100000000000000000000000000000000000100000000000000000000000000000000040000000000000000000000000000000000000000000000000000000000000000000000000000000000000000000020000000000000000000000000000000000000000000000000000000000000000000000000000000000000000000000000000000000001000000000000000000810000000000000000000000000000000000000000000000000000000000000",
      "type": "0x2",
      "transactionHash": "0x11a35c35819e0fa64bfe987d1039049ba3ad11acc9bf44ba8a6b9d0308d5d926",
      "transactionIndex": "0x8",
      "blockHash": "0x5ea77580ae25a642e032bed8ebd1426848b43fefe8852936454dd2d47ae14f41",
      "blockNumber": "0x1da9df4",
      "gasUsed": "0xb744",
      "effectiveGasPrice": "0xf429a",
      "from": "0x96202ad391545175e026680425db160a5a3cf9e6",
      "to": "0xc8310baa6444e135f7bc54d698f0ee32fa0621a3",
      "contractAddress": null,
      "l1BaseFeeScalar": "0x44d",
      "l1BlobBaseFee": "0x224",
      "l1BlobBaseFeeScalar": "0xa118b",
      "l1Fee": "0x8d56",
      "l1GasPrice": "0xd",
      "l1GasUsed": "0x640"
    },
    {
      "status": "0x1",
      "cumulativeGasUsed": "0x242f88",
      "logs": [
        {
          "address": "0xc8310baa6444e135f7bc54d698f0ee32fa0621a3",
          "topics": [
            "0xddf252ad1be2c89b69c2b068fc378daa952ba7f163c4a11628f55a4df523b3ef",
            "0x00000000000000000000000096202ad391545175e026680425db160a5a3cf9e6",
            "0x000000000000000000000000fd515d43fe2ec09275fad7940147bceb3b400ae6"
          ],
          "data": "0x0000000000000000000000000000000000000000000000000000000005f5e100",
          "blockHash": "0x5ea77580ae25a642e032bed8ebd1426848b43fefe8852936454dd2d47ae14f41",
          "blockNumber": "0x1da9df4",
          "blockTimestamp": "0x68c89ac8",
          "transactionHash": "0xae9ab77cec852038cb235803166b95c0fd658be799d9a278c234cb0b02304783",
          "transactionIndex": "0x9",
          "logIndex": "0x3e",
          "removed": false
        },
        {
          "address": "0x408054fedcce78112aa163784263cbe2b5e3ec77",
          "topics": [
            "0xddf252ad1be2c89b69c2b068fc378daa952ba7f163c4a11628f55a4df523b3ef",
            "0x0000000000000000000000000000000000000000000000000000000000000000",
            "0x00000000000000000000000096202ad391545175e026680425db160a5a3cf9e6"
          ],
          "data": "0x0000000000000000000000000000000000000000000000056bc75e2d63100000",
          "blockHash": "0x5ea77580ae25a642e032bed8ebd1426848b43fefe8852936454dd2d47ae14f41",
          "blockNumber": "0x1da9df4",
          "blockTimestamp": "0x68c89ac8",
          "transactionHash": "0xae9ab77cec852038cb235803166b95c0fd658be799d9a278c234cb0b02304783",
          "transactionIndex": "0x9",
          "logIndex": "0x3f",
          "removed": false
        },
        {
          "address": "0xfd515d43fe2ec09275fad7940147bceb3b400ae6",
          "topics": [
            "0xf9b7589b7a8d939b9da5dae90770378fe5fd7802be5d66432e85bedbdbfbcb7a",
            "0x0000000000000000000000000000000000000000000000000000000000000000",
            "0x00000000000000000000000096202ad391545175e026680425db160a5a3cf9e6"
          ],
          "data": "0x0000000000000000000000000000000000000000000000000000000005f5e1000000000000000000000000000000000000000000000000056bc75e2d63100000",
          "blockHash": "0x5ea77580ae25a642e032bed8ebd1426848b43fefe8852936454dd2d47ae14f41",
          "blockNumber": "0x1da9df4",
          "blockTimestamp": "0x68c89ac8",
          "transactionHash": "0xae9ab77cec852038cb235803166b95c0fd658be799d9a278c234cb0b02304783",
          "transactionIndex": "0x9",
          "logIndex": "0x40",
          "removed": false
        }
      ],
      "logsBloom": "0x00000000010000010000000000000000000000000000000000000000000000000000000000000000000000020000000000000000000001000000000000000000080000000000000000000808000000100000000000000000000000000000000000100000020000000000000000000800000040000000100000000010080000000020000000000000000000000000000000000000000002000000000000000000000000000000000000000000000000000000000000000000000000000000000000000002000000000000000000000000000200002000001000000000000020000800000000000000000000000000000000000000000000000000000000000000",
      "type": "0x2",
      "transactionHash": "0xae9ab77cec852038cb235803166b95c0fd658be799d9a278c234cb0b02304783",
      "transactionIndex": "0x9",
      "blockHash": "0x5ea77580ae25a642e032bed8ebd1426848b43fefe8852936454dd2d47ae14f41",
      "blockNumber": "0x1da9df4",
      "gasUsed": "0x34377",
      "effectiveGasPrice": "0xf429a",
      "from": "0x96202ad391545175e026680425db160a5a3cf9e6",
      "to": "0xfd515d43fe2ec09275fad7940147bceb3b400ae6",
      "contractAddress": null,
      "l1BaseFeeScalar": "0x44d",
      "l1BlobBaseFee": "0x224",
      "l1BlobBaseFeeScalar": "0xa118b",
      "l1Fee": "0x8d56",
      "l1GasPrice": "0xd",
      "l1GasUsed": "0x640"
    }
  ],
  "libraries": [],
  "pending": [],
  "returns": {},
  "timestamp": 1757977286,
  "chain": 84532,
  "commit": "404811c0"
}