{
  "transactions": [
    {
      "hash": "0xd311dcbd7b982870cedb13f43438db3d1904d47e3e3c659010e1bc4786832de3",
      "transactionType": "CALL",
      "contractName": null,
      "contractAddress": "0x7de9a0c146cc6a92f2592c5e4e2331b263de88b1",
      "function": "approve(address,uint256)",
      "arguments": [
        "0xD0C878aA24EE22Bc38298Eb791D504eB9D8fDbd6",
        "5000000"
      ],
      "transaction": {
        "from": "0x96202ad391545175e026680425db160a5a3cf9e6",
        "to": "0x7de9a0c146cc6a92f2592c5e4e2331b263de88b1",
        "gas": "0xfd03",
        "value": "0x0",
        "input": "0x095ea7b3000000000000000000000000d0c878aa24ee22bc38298eb791d504eb9d8fdbd600000000000000000000000000000000000000000000000000000000004c4b40",
        "nonce": "0x23",
        "chainId": "0x14a34"
      },
      "additionalContracts": [],
      "isFixedGasLimit": false
    },
    {
      "hash": "0x800ca99cd2d3c3f85f0831d742fc80bafaa2950aaf5e51cc2ee833021e094d51",
      "transactionType": "CALL",
      "contractName": null,
      "contractAddress": "0xd0c878aa24ee22bc38298eb791d504eb9d8fdbd6",
      "function": "contribute(uint256,uint256)",
      "arguments": [
        "0",
        "5000000"
      ],
      "transaction": {
        "from": "0x96202ad391545175e026680425db160a5a3cf9e6",
        "to": "0xd0c878aa24ee22bc38298eb791d504eb9d8fdbd6",
        "gas": "0x3e7dc",
        "value": "0x0",
        "input": "0x8c590917000000000000000000000000000000000000000000000000000000000000000000000000000000000000000000000000000000000000000000000000004c4b40",
        "nonce": "0x24",
        "chainId": "0x14a34"
      },
      "additionalContracts": [],
      "isFixedGasLimit": false
    }
  ],
  "receipts": [
    {
      "status": "0x1",
      "cumulativeGasUsed": "0xbb274",
      "logs": [
        {
          "address": "0x7de9a0c146cc6a92f2592c5e4e2331b263de88b1",
          "topics": [
            "0x8c5be1e5ebec7d5bd14f71427d1e84f3dd0314c0f7b2291e5b200ac8c7c3b925",
            "0x00000000000000000000000096202ad391545175e026680425db160a5a3cf9e6",
            "0x000000000000000000000000d0c878aa24ee22bc38298eb791d504eb9d8fdbd6"
          ],
          "data": "0x00000000000000000000000000000000000000000000000000000000004c4b40",
          "blockHash": "0x2c30873ec00f2ce0b8ae6a6f64cd8cd1b9ff034997ef2bee11c1ffeb2dcf746a",
          "blockNumber": "0x1d06f56",
          "blockTimestamp": "0x68b43d8c",
          "transactionHash": "0xd311dcbd7b982870cedb13f43438db3d1904d47e3e3c659010e1bc4786832de3",
          "transactionIndex": "0x4",
          "logIndex": "0x6",
          "removed": false
        }
      ],
      "logsBloom": "0x00000000010000010000000000000000000000004000000000000000000000041000000000000000000000000000000000000000000000000000000000200000000000000000000000000000000000000000000000000000000000000000000000000000000000000000000000000000000020000000000000000000000000000000000000000000000000000000000000000000000000000000000000000000060000000000000000000000000000000000000000000000000000000000000000000000000000000000000000000000000000000000001000000000000000001010000000000000000000000000000000000000000000000000000000000000",
      "type": "0x2",
      "transactionHash": "0xd311dcbd7b982870cedb13f43438db3d1904d47e3e3c659010e1bc4786832de3",
      "transactionIndex": "0x4",
      "blockHash": "0x2c30873ec00f2ce0b8ae6a6f64cd8cd1b9ff034997ef2bee11c1ffeb2dcf746a",
      "blockNumber": "0x1d06f56",
      "gasUsed": "0xb72e",
      "effectiveGasPrice": "0xf4288",
      "from": "0x96202ad391545175e026680425db160a5a3cf9e6",
      "to": "0x7de9a0c146cc6a92f2592c5e4e2331b263de88b1",
      "contractAddress": null,
      "l1BaseFeeScalar": "0x44d",
      "l1BlobBaseFee": "0x1",
      "l1BlobBaseFeeScalar": "0xa118b",
      "l1Fee": "0x6c0fd3",
      "l1GasPrice": "0x3d57a9",
      "l1GasUsed": "0x640"
    },
    {
      "status": "0x1",
      "cumulativeGasUsed": "0xe5e1f",
      "logs": [
        {
          "address": "0x7de9a0c146cc6a92f2592c5e4e2331b263de88b1",
          "topics": [
            "0xddf252ad1be2c89b69c2b068fc378daa952ba7f163c4a11628f55a4df523b3ef",
            "0x00000000000000000000000096202ad391545175e026680425db160a5a3cf9e6",
            "0x000000000000000000000000d0c878aa24ee22bc38298eb791d504eb9d8fdbd6"
          ],
          "data": "0x00000000000000000000000000000000000000000000000000000000004c4b40",
          "blockHash": "0x2c30873ec00f2ce0b8ae6a6f64cd8cd1b9ff034997ef2bee11c1ffeb2dcf746a",
          "blockNumber": "0x1d06f56",
          "blockTimestamp": "0x68b43d8c",
          "transactionHash": "0x800ca99cd2d3c3f85f0831d742fc80bafaa2950aaf5e51cc2ee833021e094d51",
          "transactionIndex": "0x5",
          "logIndex": "0x7",
          "removed": false
        },
        {
          "address": "0x7e2eb48b554b9700477e5f6cfd9da74c50565a9e",
          "topics": [
            "0xddf252ad1be2c89b69c2b068fc378daa952ba7f163c4a11628f55a4df523b3ef",
            "0x0000000000000000000000000000000000000000000000000000000000000000",
            "0x00000000000000000000000096202ad391545175e026680425db160a5a3cf9e6"
          ],
          "data": "0x0000000000000000000000000000000000000000000000004563918244f40000",
          "blockHash": "0x2c30873ec00f2ce0b8ae6a6f64cd8cd1b9ff034997ef2bee11c1ffeb2dcf746a",
          "blockNumber": "0x1d06f56",
          "blockTimestamp": "0x68b43d8c",
          "transactionHash": "0x800ca99cd2d3c3f85f0831d742fc80bafaa2950aaf5e51cc2ee833021e094d51",
          "transactionIndex": "0x5",
          "logIndex": "0x8",
          "removed": false
        },
        {
          "address": "0xd0c878aa24ee22bc38298eb791d504eb9d8fdbd6",
          "topics": [
            "0xf9b7589b7a8d939b9da5dae90770378fe5fd7802be5d66432e85bedbdbfbcb7a",
            "0x0000000000000000000000000000000000000000000000000000000000000000",
            "0x00000000000000000000000096202ad391545175e026680425db160a5a3cf9e6"
          ],
          "data": "0x00000000000000000000000000000000000000000000000000000000004c4b400000000000000000000000000000000000000000000000004563918244f40000",
          "blockHash": "0x2c30873ec00f2ce0b8ae6a6f64cd8cd1b9ff034997ef2bee11c1ffeb2dcf746a",
          "blockNumber": "0x1d06f56",
          "blockTimestamp": "0x68b43d8c",
          "transactionHash": "0x800ca99cd2d3c3f85f0831d742fc80bafaa2950aaf5e51cc2ee833021e094d51",
          "transactionIndex": "0x5",
          "logIndex": "0x9",
          "removed": false
        }
      ],
      "logsBloom": "0x00000000010000010000000000000000000000004002000000000000000000041000000000000000000000000000000000000000000000000000000000000000080000000000000000000008000000000000000000000000000000000000000000000000030000008000000000000800000020000000000000000010000000000000000000000000000000000000000000000000000000000000000000000000040000000200000000000000000000000000000000000040000000000000000000000002000000000000000000000000000200002000001000000000000020001000000000000000000000000000000000000000000000000000000040000000",
      "type": "0x2",
      "transactionHash": "0x800ca99cd2d3c3f85f0831d742fc80bafaa2950aaf5e51cc2ee833021e094d51",
      "transactionIndex": "0x5",
      "blockHash": "0x2c30873ec00f2ce0b8ae6a6f64cd8cd1b9ff034997ef2bee11c1ffeb2dcf746a",
      "blockNumber": "0x1d06f56",
      "gasUsed": "0x2abab",
      "effectiveGasPrice": "0xf4288",
      "from": "0x96202ad391545175e026680425db160a5a3cf9e6",
      "to": "0xd0c878aa24ee22bc38298eb791d504eb9d8fdbd6",
      "contractAddress": null,
      "l1BaseFeeScalar": "0x44d",
      "l1BlobBaseFee": "0x1",
      "l1BlobBaseFeeScalar": "0xa118b",
      "l1Fee": "0x6c0fd3",
      "l1GasPrice": "0x3d57a9",
      "l1GasUsed": "0x640"
    }
  ],
  "libraries": [],
  "pending": [],
  "returns": {},
  "timestamp": 1756642698,
  "chain": 84532,
  "commit": "dcd07ce0"
}