{
  "transactions": [
    {
      "hash": "0xfac0c506ad5556b92020337d7d046dc063ba1fa05120de1608985b3d7a572a8b",
      "transactionType": "CALL",
      "contractName": null,
      "contractAddress": "0x7de9a0c146cc6a92f2592c5e4e2331b263de88b1",
      "function": "approve(address,uint256)",
      "arguments": [
        "0xD0C878aA24EE22Bc38298Eb791D504eB9D8fDbd6",
        "20000000"
      ],
      "transaction": {
        "from": "0x96202ad391545175e026680425db160a5a3cf9e6",
        "to": "0x7de9a0c146cc6a92f2592c5e4e2331b263de88b1",
        "gas": "0xfd03",
        "value": "0x0",
        "input": "0x095ea7b3000000000000000000000000d0c878aa24ee22bc38298eb791d504eb9d8fdbd60000000000000000000000000000000000000000000000000000000001312d00",
        "nonce": "0x25",
        "chainId": "0x14a34"
      },
      "additionalContracts": [],
      "isFixedGasLimit": false
    },
    {
      "hash": "0x4f2e2baafd6de7b02d5026a98ed0cd847b49a17d0a59b1584442c953162d1748",
      "transactionType": "CALL",
      "contractName": null,
      "contractAddress": "0xd0c878aa24ee22bc38298eb791d504eb9d8fdbd6",
      "function": "contribute(uint256,uint256)",
      "arguments": [
        "0",
        "20000000"
      ],
      "transaction": {
        "from": "0x96202ad391545175e026680425db160a5a3cf9e6",
        "to": "0xd0c878aa24ee22bc38298eb791d504eb9d8fdbd6",
        "gas": "0x1c788",
        "value": "0x0",
        "input": "0x8c59091700000000000000000000000000000000000000000000000000000000000000000000000000000000000000000000000000000000000000000000000001312d00",
        "nonce": "0x26",
        "chainId": "0x14a34"
      },
      "additionalContracts": [],
      "isFixedGasLimit": false
    }
  ],
  "receipts": [
    {
      "status": "0x1",
      "cumulativeGasUsed": "0x461069",
      "logs": [
        {
          "address": "0x7de9a0c146cc6a92f2592c5e4e2331b263de88b1",
          "topics": [
            "0x8c5be1e5ebec7d5bd14f71427d1e84f3dd0314c0f7b2291e5b200ac8c7c3b925",
            "0x00000000000000000000000096202ad391545175e026680425db160a5a3cf9e6",
            "0x000000000000000000000000d0c878aa24ee22bc38298eb791d504eb9d8fdbd6"
          ],
          "data": "0x0000000000000000000000000000000000000000000000000000000001312d00",
          "blockHash": "0x66e654bc4f886b976cab999f894b9f7a90494d9712207cdf5aa6b493bea87eff",
          "blockNumber": "0x1d06f72",
          "blockTimestamp": "0x68b43dc4",
          "transactionHash": "0xfac0c506ad5556b92020337d7d046dc063ba1fa05120de1608985b3d7a572a8b",
          "transactionIndex": "0x8",
          "logIndex": "0xb3",
          "removed": false
        }
      ],
      "logsBloom": "0x00000000010000010000000000000000000000004000000000000000000000041000000000000000000000000000000000000000000000000000000000200000000000000000000000000000000000000000000000000000000000000000000000000000000000000000000000000000000020000000000000000000000000000000000000000000000000000000000000000000000000000000000000000000060000000000000000000000000000000000000000000000000000000000000000000000000000000000000000000000000000000000001000000000000000001010000000000000000000000000000000000000000000000000000000000000",
      "type": "0x2",
      "transactionHash": "0xfac0c506ad5556b92020337d7d046dc063ba1fa05120de1608985b3d7a572a8b",
      "transactionIndex": "0x8",
      "blockHash": "0x66e654bc4f886b976cab999f894b9f7a90494d9712207cdf5aa6b493bea87eff",
      "blockNumber": "0x1d06f72",
      "gasUsed": "0xb72e",
      "effectiveGasPrice": "0xf428b",
      "from": "0x96202ad391545175e026680425db160a5a3cf9e6",
      "to": "0x7de9a0c146cc6a92f2592c5e4e2331b263de88b1",
      "contractAddress": null,
      "l1BaseFeeScalar": "0x44d",
      "l1BlobBaseFee": "0x1",
      "l1BlobBaseFeeScalar": "0xa118b",
      "l1Fee": "0x60e159",
      "l1GasPrice": "0x36febb",
      "l1GasUsed": "0x640"
    },
    {
      "status": "0x1",
      "cumulativeGasUsed": "0x475a36",
      "logs": [
        {
          "address": "0x7de9a0c146cc6a92f2592c5e4e2331b263de88b1",
          "topics": [
            "0xddf252ad1be2c89b69c2b068fc378daa952ba7f163c4a11628f55a4df523b3ef",
            "0x00000000000000000000000096202ad391545175e026680425db160a5a3cf9e6",
            "0x000000000000000000000000d0c878aa24ee22bc38298eb791d504eb9d8fdbd6"
          ],
          "data": "0x0000000000000000000000000000000000000000000000000000000001312d00",
          "blockHash": "0x66e654bc4f886b976cab999f894b9f7a90494d9712207cdf5aa6b493bea87eff",
          "blockNumber": "0x1d06f72",
          "blockTimestamp": "0x68b43dc4",
          "transactionHash": "0x4f2e2baafd6de7b02d5026a98ed0cd847b49a17d0a59b1584442c953162d1748",
          "transactionIndex": "0x9",
          "logIndex": "0xb4",
          "removed": false
        },
        {
          "address": "0x7e2eb48b554b9700477e5f6cfd9da74c50565a9e",
          "topics": [
            "0xddf252ad1be2c89b69c2b068fc378daa952ba7f163c4a11628f55a4df523b3ef",
            "0x0000000000000000000000000000000000000000000000000000000000000000",
            "0x00000000000000000000000096202ad391545175e026680425db160a5a3cf9e6"
          ],
          "data": "0x000000000000000000000000000000000000000000000001158e460913d00000",
          "blockHash": "0x66e654bc4f886b976cab999f894b9f7a90494d9712207cdf5aa6b493bea87eff",
          "blockNumber": "0x1d06f72",
          "blockTimestamp": "0x68b43dc4",
          "transactionHash": "0x4f2e2baafd6de7b02d5026a98ed0cd847b49a17d0a59b1584442c953162d1748",
          "transactionIndex": "0x9",
          "logIndex": "0xb5",
          "removed": false
        },
        {
          "address": "0xd0c878aa24ee22bc38298eb791d504eb9d8fdbd6",
          "topics": [
            "0xf9b7589b7a8d939b9da5dae90770378fe5fd7802be5d66432e85bedbdbfbcb7a",
            "0x0000000000000000000000000000000000000000000000000000000000000000",
            "0x00000000000000000000000096202ad391545175e026680425db160a5a3cf9e6"
          ],
          "data": "0x0000000000000000000000000000000000000000000000000000000001312d00000000000000000000000000000000000000000000000001158e460913d00000",
          "blockHash": "0x66e654bc4f886b976cab999f894b9f7a90494d9712207cdf5aa6b493bea87eff",
          "blockNumber": "0x1d06f72",
          "blockTimestamp": "0x68b43dc4",
          "transactionHash": "0x4f2e2baafd6de7b02d5026a98ed0cd847b49a17d0a59b1584442c953162d1748",
          "transactionIndex": "0x9",
          "logIndex": "0xb6",
          "removed": false
        }
      ],
      "logsBloom": "0x00000000010000010000000000000000000000004002000000000000000000041000000000000000000000000000000000000000000000000000000000000000080000000000000000000008000000000000000000000000000000000000000000000000030000008000000000000800000020000000000000000010000000000000000000000000000000000000000000000000000000000000000000000000040000000200000000000000000000000000000000000040000000000000000000000002000000000000000000000000000200002000001000000000000020001000000000000000000000000000000000000000000000000000000040000000",
      "type": "0x2",
      "transactionHash": "0x4f2e2baafd6de7b02d5026a98ed0cd847b49a17d0a59b1584442c953162d1748",
      "transactionIndex": "0x9",
      "blockHash": "0x66e654bc4f886b976cab999f894b9f7a90494d9712207cdf5aa6b493bea87eff",
      "blockNumber": "0x1d06f72",
      "gasUsed": "0x149cd",
      "effectiveGasPrice": "0xf428b",
      "from": "0x96202ad391545175e026680425db160a5a3cf9e6",
      "to": "0xd0c878aa24ee22bc38298eb791d504eb9d8fdbd6",
      "contractAddress": null,
      "l1BaseFeeScalar": "0x44d",
      "l1BlobBaseFee": "0x1",
      "l1BlobBaseFeeScalar": "0xa118b",
      "l1Fee": "0x60e159",
      "l1GasPrice": "0x36febb",
      "l1GasUsed": "0x640"
    }
  ],
  "libraries": [],
  "pending": [],
  "returns": {},
  "timestamp": 1756642755,
  "chain": 84532,
  "commit": "dcd07ce0"
}