{
  "transactions": [
    {
      "hash": "0x66294caf09781f7d4c802e2dd87f387062109b7483172faadee70a95742395e6",
      "transactionType": "CALL",
      "contractName": null,
      "contractAddress": "0x7de9a0c146cc6a92f2592c5e4e2331b263de88b1",
      "function": "approve(address,uint256)",
      "arguments": [
        "0x013089a6B8E738B638fBb84D94B9AAFa1dCE6060",
        "5000000"
      ],
      "transaction": {
        "from": "0x96202ad391545175e026680425db160a5a3cf9e6",
        "to": "0x7de9a0c146cc6a92f2592c5e4e2331b263de88b1",
        "gas": "0xfd03",
        "value": "0x0",
        "input": "0x095ea7b3000000000000000000000000013089a6b8e738b638fbb84d94b9aafa1dce606000000000000000000000000000000000000000000000000000000000004c4b40",
        "nonce": "0x8",
        "chainId": "0x14a34"
      },
      "additionalContracts": [],
      "isFixedGasLimit": false
    },
    {
      "hash": "0xe1af0fdb64d6f033afdf869a4b0604996e99da1393742b3c347dbe5329d70c5d",
      "transactionType": "CALL",
      "contractName": null,
      "contractAddress": "0x013089a6b8e738b638fbb84d94b9aafa1dce6060",
      "function": "contribute(uint256,uint256)",
      "arguments": [
        "0",
        "5000000"
      ],
      "transaction": {
        "from": "0x96202ad391545175e026680425db160a5a3cf9e6",
        "to": "0x013089a6b8e738b638fbb84d94b9aafa1dce6060",
        "gas": "0x3595c",
        "value": "0x0",
        "input": "0x8c590917000000000000000000000000000000000000000000000000000000000000000000000000000000000000000000000000000000000000000000000000004c4b40",
        "nonce": "0x9",
        "chainId": "0x14a34"
      },
      "additionalContracts": [],
      "isFixedGasLimit": false
    }
  ],
  "receipts": [
    {
      "status": "0x1",
      "cumulativeGasUsed": "0x14e3f9",
      "logs": [
        {
          "address": "0x7de9a0c146cc6a92f2592c5e4e2331b263de88b1",
          "topics": [
            "0x8c5be1e5ebec7d5bd14f71427d1e84f3dd0314c0f7b2291e5b200ac8c7c3b925",
            "0x00000000000000000000000096202ad391545175e026680425db160a5a3cf9e6",
            "0x000000000000000000000000013089a6b8e738b638fbb84d94b9aafa1dce6060"
          ],
          "data": "0x00000000000000000000000000000000000000000000000000000000004c4b40",
          "blockHash": "0x284da66045f97f77be08d0b809fd6affc302a479ac9e24cb36d980b2bc0b8756",
          "blockNumber": "0x1cff652",
          "blockTimestamp": "0x68b34b84",
          "transactionHash": "0x66294caf09781f7d4c802e2dd87f387062109b7483172faadee70a95742395e6",
          "transactionIndex": "0x8",
          "logIndex": "0x34",
          "removed": false
        }
      ],
      "logsBloom": "0x00000000010000010000000000000000008000004000000000000000000000001000000000000000000000000000000000000000000000000000000000200000000000000000000000000000000000000000000000000000000000000000000000000000000000000000000000000000000020000000000000000000000000800000000000000000000000000000000000000000000000000000000000000000020000000000000000000000000000000000000000020000000000000000000000000000000000000000000000000000000000000000001000000000000000000010000000000000000000000000000000000000000000000000000000000000",
      "type": "0x2",
      "transactionHash": "0x66294caf09781f7d4c802e2dd87f387062109b7483172faadee70a95742395e6",
      "transactionIndex": "0x8",
      "blockHash": "0x284da66045f97f77be08d0b809fd6affc302a479ac9e24cb36d980b2bc0b8756",
      "blockNumber": "0x1cff652",
      "gasUsed": "0xb72e",
      "effectiveGasPrice": "0xf4283",
      "from": "0x96202ad391545175e026680425db160a5a3cf9e6",
      "to": "0x7de9a0c146cc6a92f2592c5e4e2331b263de88b1",
      "contractAddress": null,
      "l1BaseFeeScalar": "0x44d",
      "l1BlobBaseFee": "0x2",
      "l1BlobBaseFeeScalar": "0xa118b",
      "l1Fee": "0xd07fe3b",
      "l1GasPrice": "0x765ba58",
      "l1GasUsed": "0x640"
    },
    {
      "status": "0x1",
      "cumulativeGasUsed": "0x172e34",
      "logs": [
        {
          "address": "0x7de9a0c146cc6a92f2592c5e4e2331b263de88b1",
          "topics": [
            "0xddf252ad1be2c89b69c2b068fc378daa952ba7f163c4a11628f55a4df523b3ef",
            "0x00000000000000000000000096202ad391545175e026680425db160a5a3cf9e6",
            "0x000000000000000000000000013089a6b8e738b638fbb84d94b9aafa1dce6060"
          ],
          "data": "0x00000000000000000000000000000000000000000000000000000000004c4b40",
          "blockHash": "0x7368418eaf01ba0ccaeeffc8b87966ea81f27f36f82e8745871f10de344f87c6",
          "blockNumber": "0x1cff652",
          "blockTimestamp": "0x68b34b84",
          "transactionHash": "0xe1af0fdb64d6f033afdf869a4b0604996e99da1393742b3c347dbe5329d70c5d",
          "transactionIndex": "0x9",
          "logIndex": "0x35",
          "removed": false
        },
        {
          "address": "0xfcfdbdf4360eedf2b90feaaf881ba91d50d4ad26",
          "topics": [
            "0xddf252ad1be2c89b69c2b068fc378daa952ba7f163c4a11628f55a4df523b3ef",
            "0x0000000000000000000000000000000000000000000000000000000000000000",
            "0x00000000000000000000000096202ad391545175e026680425db160a5a3cf9e6"
          ],
          "data": "0x00000000000000000000000000000000000000000000000000000000004c4b40",
          "blockHash": "0x7368418eaf01ba0ccaeeffc8b87966ea81f27f36f82e8745871f10de344f87c6",
          "blockNumber": "0x1cff652",
          "blockTimestamp": "0x68b34b84",
          "transactionHash": "0xe1af0fdb64d6f033afdf869a4b0604996e99da1393742b3c347dbe5329d70c5d",
          "transactionIndex": "0x9",
          "logIndex": "0x36",
          "removed": false
        },
        {
          "address": "0x013089a6b8e738b638fbb84d94b9aafa1dce6060",
          "topics": [
            "0xf9b7589b7a8d939b9da5dae90770378fe5fd7802be5d66432e85bedbdbfbcb7a",
            "0x0000000000000000000000000000000000000000000000000000000000000000",
            "0x00000000000000000000000096202ad391545175e026680425db160a5a3cf9e6"
          ],
          "data": "0x00000000000000000000000000000000000000000000000000000000004c4b4000000000000000000000000000000000000000000000000000000000004c4b40",
          "blockHash": "0x7368418eaf01ba0ccaeeffc8b87966ea81f27f36f82e8745871f10de344f87c6",
          "blockNumber": "0x1cff652",
          "blockTimestamp": "0x68b34b84",
          "transactionHash": "0xe1af0fdb64d6f033afdf869a4b0604996e99da1393742b3c347dbe5329d70c5d",
          "transactionIndex": "0x9",
          "logIndex": "0x37",
          "removed": false
        }
      ],
      "logsBloom": "0x00000000010000010000200000000000008000004000000000000000000000001000000000000000000000000040000000000000000000000000000000000000080000000000000000000008000000000000000000000000000000000000000000000000220000000000000000000800000020000000000000000010000000800000000000000000000000000000000000000000000000000000000000800000000000000000000000000000000000000000000000020000000000000000000000080002000000000000000000000000000200002000001000000000000020000000000000000000000000000000000010000000000000000000000000000000",
      "type": "0x2",
      "transactionHash": "0xe1af0fdb64d6f033afdf869a4b0604996e99da1393742b3c347dbe5329d70c5d",
      "transactionIndex": "0x9",
      "blockHash": "0x7368418eaf01ba0ccaeeffc8b87966ea81f27f36f82e8745871f10de344f87c6",
      "blockNumber": "0x1cff652",
      "gasUsed": "0x24a3b",
      "effectiveGasPrice": "0xf4283",
      "from": "0x96202ad391545175e026680425db160a5a3cf9e6",
      "to": "0x013089a6b8e738b638fbb84d94b9aafa1dce6060",
      "contractAddress": null,
      "l1BaseFeeScalar": "0x44d",
      "l1BlobBaseFee": "0x2",
      "l1BlobBaseFeeScalar": "0xa118b",
      "l1Fee": "0xd07fe3b",
      "l1GasPrice": "0x765ba58",
      "l1GasUsed": "0x640"
    }
  ],
  "libraries": [],
  "pending": [],
  "returns": {},
  "timestamp": 1756580739,
  "chain": 84532,
  "commit": "622e4383"
}