{
  "transactions": [
    {
      "hash": "0x45eda6bce9d16c770e3ef64b48535923689770e5acf9b457a56c8ffa8f0843cf",
      "transactionType": "CALL",
      "contractName": null,
      "contractAddress": "0xc8310baa6444e135f7bc54d698f0ee32fa0621a3",
      "function": "approve(address,uint256)",
      "arguments": [
        "0xFd515d43FE2Ec09275faD7940147BCeB3B400ae6",
        "100000000"
      ],
      "transaction": {
        "from": "0x96202ad391545175e026680425db160a5a3cf9e6",
        "to": "0xc8310baa6444e135f7bc54d698f0ee32fa0621a3",
        "gas": "0xfd22",
        "value": "0x0",
        "input": "0x095ea7b3000000000000000000000000fd515d43fe2ec09275fad7940147bceb3b400ae60000000000000000000000000000000000000000000000000000000005f5e100",
        "nonce": "0x34",
        "chainId": "0x14a34"
      },
      "additionalContracts": [],
      "isFixedGasLimit": false
    },
    {
      "hash": "0xd81a26a3ff5aa5e6a716331d04ebd0d98066be799134ebcb33f24ca66a61b46e",
      "transactionType": "CALL",
      "contractName": null,
      "contractAddress": "0xfd515d43fe2ec09275fad7940147bceb3b400ae6",
      "function": "createCampaign(string,string,uint256,uint256,address)",
      "arguments": [
        "Taylor Swift | The Eras Tour",
        "TSBOG",
        "1000000000",
        "30",
        "0xC8310baA6444e135f7BC54D698F0EE32Fa0621a3"
      ],
      "transaction": {
        "from": "0x96202ad391545175e026680425db160a5a3cf9e6",
        "to": "0xfd515d43fe2ec09275fad7940147bceb3b400ae6",
        "gas": "0x132d29",
        "value": "0x0",
        "input": "0x2bfec04700000000000000000000000000000000000000000000000000000000000000a000000000000000000000000000000000000000000000000000000000000000e0000000000000000000000000000000000000000000000000000000003b9aca00000000000000000000000000000000000000000000000000000000000000001e000000000000000000000000c8310baa6444e135f7bc54d698f0ee32fa0621a3000000000000000000000000000000000000000000000000000000000000001c5461796c6f72205377696674207c20546865204572617320546f75720000000000000000000000000000000000000000000000000000000000000000000000055453424f47000000000000000000000000000000000000000000000000000000",
        "nonce": "0x35",
        "chainId": "0x14a34"
      },
      "additionalContracts": [
        {
          "transactionType": "CREATE",
          "address": "0x408054fedcce78112aa163784263cbe2b5e3ec77",
          "initCode": "0x60e0604052346104455761101f8038038061001981610449565b92833981019060a0818303126104455780516001600160401b038111610445578261004591830161046e565b602082015190926001600160401b0382116104455761006591830161046e565b60408201516060830151919391926001600160a01b038416919082850361044557608001519460ff861693848703610445578051906001600160401b0382116103485760035490600182811c9216801561043b575b602083101461032a5781601f8493116103cd575b50602090601f8311600114610367575f9261035c575b50508160011b915f199060031b1c1916176003555b8051906001600160401b0382116103485760045490600182811c9216801561033e575b602083101461032a5781601f8493116102bc575b50602090601f8311600114610256575f9261024b575b50508160011b915f199060031b1c1916176004555b801561023857608052156101f3576012106101ae5760a05260c052604051610b5f90816104c082396080518181816103dd015261062d015260a0518181816102ea0152610386015260c051816106690152f35b60405162461bcd60e51b815260206004820152601960248201527f446563696d616c732063616e6e6f7420657863656564203138000000000000006044820152606490fd5b60405162461bcd60e51b815260206004820152601f60248201527f496e76616c69642066756e64696e67206d616e616765722061646472657373006044820152606490fd5b63392e1e2760e01b5f525f60045260245ffd5b015190505f80610146565b60045f9081528281209350601f198516905b8181106102a4575090846001959493921061028c575b505050811b0160045561015b565b01515f1960f88460031b161c191690555f808061027e565b92936020600181928786015181550195019301610268565b60045f529091507f8a35acfbc15ff81a39ae7d344fd709f28e8600b4aa8c65c6b64bfe7fe36bd19b601f840160051c81019160208510610320575b90601f859493920160051c01905b8181106103125750610130565b5f8155849350600101610305565b90915081906102f7565b634e487b7160e01b5f52602260045260245ffd5b91607f169161011c565b634e487b7160e01b5f52604160045260245ffd5b015190505f806100e4565b60035f9081528281209350601f198516905b8181106103b5575090846001959493921061039d575b505050811b016003556100f9565b01515f1960f88460031b161c191690555f808061038f565b92936020600181928786015181550195019301610379565b60035f529091507fc2575a0e9e593c00f959f8c92f12db2869c3395a3b0502d05e2516446f71f85b601f840160051c81019160208510610431575b90601f859493920160051c01905b81811061042357506100ce565b5f8155849350600101610416565b9091508190610408565b91607f16916100ba565b5f80fd5b6040519190601f01601f191682016001600160401b0381118382101761034857604052565b81601f82011215610445578051906001600160401b0382116103485761049d601f8301601f1916602001610449565b928284526020838301011161044557815f9260208093018386015e830101529056fe6080806040526004361015610012575f80fd5b5f3560e01c90816306fdde03146108af57508063095ea7b31461082057806318160ddd1461080357806323b872dd1461068d578063313ce56714610650578063355274ea1461061657806340c10f191461035257806370a082311461030e578063775fa46d146102be57806395d89b4114610143578063a9059cbb146101125763dd62ed3e146100a0575f80fd5b3461010e57604060031936011261010e576100b96109b0565b73ffffffffffffffffffffffffffffffffffffffff6100d66109d3565b91165f52600160205273ffffffffffffffffffffffffffffffffffffffff60405f2091165f52602052602060405f2054604051908152f35b5f80fd5b3461010e57604060031936011261010e5761013861012e6109b0565b6024359033610a30565b602060405160018152f35b3461010e575f60031936011261010e576040515f600454908160011c600183169283156102b4575b60208210841461028757818552849390811561024557506001146101e9575b5003601f01601f191681019067ffffffffffffffff8211818310176101bc576101b882918260405282610986565b0390f35b7f4e487b71000000000000000000000000000000000000000000000000000000005f52604160045260245ffd5b60045f90815291507f8a35acfbc15ff81a39ae7d344fd709f28e8600b4aa8c65c6b64bfe7fe36bd19b5b8183106102295750508101602001601f1961018a565b6020919350806001915483858801015201910190918392610213565b7fffffffffffffffffffffffffffffffffffffffffffffffffffffffffffffff001660208581019190915291151560051b84019091019150601f19905061018a565b7f4e487b71000000000000000000000000000000000000000000000000000000005f52602260045260245ffd5b90607f169061016b565b3461010e575f60031936011261010e57602060405173ffffffffffffffffffffffffffffffffffffffff7f0000000000000000000000000000000000000000000000000000000000000000168152f35b3461010e57602060031936011261010e5773ffffffffffffffffffffffffffffffffffffffff61033c6109b0565b165f525f602052602060405f2054604051908152f35b3461010e57604060031936011261010e5761036b6109b0565b6024359073ffffffffffffffffffffffffffffffffffffffff7f00000000000000000000000000000000000000000000000000000000000000001633036105b85773ffffffffffffffffffffffffffffffffffffffff16801561055a5781156104fc576103da826002546109f6565b917f000000000000000000000000000000000000000000000000000000000000000080931161049e577fddf252ad1be2c89b69c2b068fc378daa952ba7f163c4a11628f55a4df523b3ef60205f92610434816002546109f6565b600255841584146104895780600254036002555b604051908152a360025481811161045b57005b7f9e79f854000000000000000000000000000000000000000000000000000000005f5260045260245260445ffd5b84845283825260408420818154019055610448565b60646040517f08c379a000000000000000000000000000000000000000000000000000000000815260206004820152601260248201527f45786365656473206d617820737570706c7900000000000000000000000000006044820152fd5b60646040517f08c379a000000000000000000000000000000000000000000000000000000000815260206004820152601760248201527f416d6f756e74206d75737420626520706f7369746976650000000000000000006044820152fd5b60646040517f08c379a000000000000000000000000000000000000000000000000000000000815260206004820152601b60248201527f43616e6e6f74206d696e7420746f207a65726f206164647265737300000000006044820152fd5b60646040517f08c379a000000000000000000000000000000000000000000000000000000000815260206004820152601c60248201527f4f6e6c792046756e64696e674d616e616765722063616e206d696e74000000006044820152fd5b3461010e575f60031936011261010e5760206040517f00000000000000000000000000000000000000000000000000000000000000008152f35b3461010e575f60031936011261010e57602060405160ff7f0000000000000000000000000000000000000000000000000000000000000000168152f35b3461010e57606060031936011261010e576106a66109b0565b6106ae6109d3565b6044359073ffffffffffffffffffffffffffffffffffffffff831692835f52600160205260405f2073ffffffffffffffffffffffffffffffffffffffff33165f5260205260405f20547fffffffffffffffffffffffffffffffffffffffffffffffffffffffffffffffff810361072a575b506101389350610a30565b8381106107cf5784156107a357331561077757610138945f52600160205260405f2073ffffffffffffffffffffffffffffffffffffffff33165f526020528360405f20910390558461071f565b7f94280d62000000000000000000000000000000000000000000000000000000005f525f60045260245ffd5b7fe602df05000000000000000000000000000000000000000000000000000000005f525f60045260245ffd5b83907ffb8f41b2000000000000000000000000000000000000000000000000000000005f523360045260245260445260645ffd5b3461010e575f60031936011261010e576020600254604051908152f35b3461010e57604060031936011261010e576108396109b0565b6024359033156107a35773ffffffffffffffffffffffffffffffffffffffff1690811561077757335f52600160205260405f20825f526020528060405f20556040519081527f8c5be1e5ebec7d5bd14f71427d1e84f3dd0314c0f7b2291e5b200ac8c7c3b92560203392a3602060405160018152f35b3461010e575f60031936011261010e575f600354908160011c6001831692831561097c575b6020821084146102875781855284939081156102455750600114610920575003601f01601f191681019067ffffffffffffffff8211818310176101bc576101b882918260405282610986565b60035f90815291507fc2575a0e9e593c00f959f8c92f12db2869c3395a3b0502d05e2516446f71f85b5b8183106109605750508101602001601f1961018a565b602091935080600191548385880101520191019091839261094a565b90607f16906108d4565b601f19601f602060409481855280519182918282880152018686015e5f8582860101520116010190565b6004359073ffffffffffffffffffffffffffffffffffffffff8216820361010e57565b6024359073ffffffffffffffffffffffffffffffffffffffff8216820361010e57565b91908201809211610a0357565b7f4e487b71000000000000000000000000000000000000000000000000000000005f52601160045260245ffd5b73ffffffffffffffffffffffffffffffffffffffff16908115610b265773ffffffffffffffffffffffffffffffffffffffff16918215610afa57815f525f60205260405f2054818110610ac857817fddf252ad1be2c89b69c2b068fc378daa952ba7f163c4a11628f55a4df523b3ef92602092855f525f84520360405f2055845f525f825260405f20818154019055604051908152a3565b827fe450d38c000000000000000000000000000000000000000000000000000000005f5260045260245260445260645ffd5b7fec442f05000000000000000000000000000000000000000000000000000000005f525f60045260245ffd5b7f96c6fd1e000000000000000000000000000000000000000000000000000000005f525f60045260245ffdfea164736f6c634300081a000a00000000000000000000000000000000000000000000000000000000000000a000000000000000000000000000000000000000000000000000000000000000e000000000000000000000000000000000000000000000004be4e7267b6ae00000000000000000000000000000fd515d43fe2ec09275fad7940147bceb3b400ae60000000000000000000000000000000000000000000000000000000000000012000000000000000000000000000000000000000000000000000000000000001c5461796c6f72205377696674207c20546865204572617320546f75720000000000000000000000000000000000000000000000000000000000000000000000055453424f47000000000000000000000000000000000000000000000000000000"
        }
      ],
      "isFixedGasLimit": false
    }
  ],
  "receipts": [
    {
      "status": "0x1",
      "cumulativeGasUsed": "0x3e10c1",
      "logs": [
        {
          "address": "0xc8310baa6444e135f7bc54d698f0ee32fa0621a3",
          "topics": [
            "0x8c5be1e5ebec7d5bd14f71427d1e84f3dd0314c0f7b2291e5b200ac8c7c3b925",
            "0x00000000000000000000000096202ad391545175e026680425db160a5a3cf9e6",
            "0x000000000000000000000000fd515d43fe2ec09275fad7940147bceb3b400ae6"
          ],
          "data": "0x0000000000000000000000000000000000000000000000000000000005f5e100",
          "blockHash": "0x9363f4917aad4f3b2ba007128086825a1176f73b5e5f975204d0157119228dca",
          "blockNumber": "0x1da9d93",
          "blockTimestamp": "0x68c89a06",
          "transactionHash": "0x45eda6bce9d16c770e3ef64b48535923689770e5acf9b457a56c8ffa8f0843cf",
          "transactionIndex": "0x17",
          "logIndex": "0x59",
          "removed": false
        }
      ],
      "logsBloom": "0x00000000010000010000000000000000000000000000000000000000000000000000000000000000000000020000000000000000000001000000000000200000000000000000000000000000000000100000000000000000000000000000000000100000000000000000000000000000000040000000000000000000000000000000000000000000000000000000000000000000000000000000000000000000020000000000000000000000000000000000000000000000000000000000000000000000000000000000000000000000000000000000001000000000000000000810000000000000000000000000000000000000000000000000000000000000",
      "type": "0x2",
      "transactionHash": "0x45eda6bce9d16c770e3ef64b48535923689770e5acf9b457a56c8ffa8f0843cf",
      "transactionIndex": "0x17",
      "blockHash": "0x9363f4917aad4f3b2ba007128086825a1176f73b5e5f975204d0157119228dca",
      "blockNumber": "0x1da9d93",
      "gasUsed": "0xb744",
      "effectiveGasPrice": "0xf4297",
      "from": "0x96202ad391545175e026680425db160a5a3cf9e6",
      "to": "0xc8310baa6444e135f7bc54d698f0ee32fa0621a3",
      "contractAddress": null,
      "l1BaseFeeScalar": "0x44d",
      "l1BlobBaseFee": "0x282",
      "l1BlobBaseFeeScalar": "0xa118b",
      "l1Fee": "0xa598",
      "l1GasPrice": "0x11",
      "l1GasUsed": "0x640"
    },
    {
      "status": "0x1",
      "cumulativeGasUsed": "0x4bf2e6",
      "logs": [
        {
          "address": "0xc8310baa6444e135f7bc54d698f0ee32fa0621a3",
          "topics": [
            "0xddf252ad1be2c89b69c2b068fc378daa952ba7f163c4a11628f55a4df523b3ef",
            "0x00000000000000000000000096202ad391545175e026680425db160a5a3cf9e6",
            "0x000000000000000000000000fd515d43fe2ec09275fad7940147bceb3b400ae6"
          ],
          "data": "0x0000000000000000000000000000000000000000000000000000000005f5e100",
          "blockHash": "0x9363f4917aad4f3b2ba007128086825a1176f73b5e5f975204d0157119228dca",
          "blockNumber": "0x1da9d93",
          "blockTimestamp": "0x68c89a06",
          "transactionHash": "0xd81a26a3ff5aa5e6a716331d04ebd0d98066be799134ebcb33f24ca66a61b46e",
          "transactionIndex": "0x18",
          "logIndex": "0x5a",
          "removed": false
        },
        {
          "address": "0xfd515d43fe2ec09275fad7940147bceb3b400ae6",
          "topics": [
            "0x77306f78625dc94a22e2f0fd1090331ecdcd2e203736610b225e7cf370e945d3",
            "0x0000000000000000000000000000000000000000000000000000000000000000",
            "0x00000000000000000000000096202ad391545175e026680425db160a5a3cf9e6"
          ],
          "data": "0x000000000000000000000000408054fedcce78112aa163784263cbe2b5e3ec77000000000000000000000000c8310baa6444e135f7bc54d698f0ee32fa0621a3000000000000000000000000000000000000000000000000000000003b9aca000000000000000000000000000000000000000000000000000000000005f5e1000000000000000000000000000000000000000000000000000000000068f02706",
          "blockHash": "0x9363f4917aad4f3b2ba007128086825a1176f73b5e5f975204d0157119228dca",
          "blockNumber": "0x1da9d93",
          "blockTimestamp": "0x68c89a06",
          "transactionHash": "0xd81a26a3ff5aa5e6a716331d04ebd0d98066be799134ebcb33f24ca66a61b46e",
          "transactionIndex": "0x18",
          "logIndex": "0x5b",
          "removed": false
        }
      ],
      "logsBloom": "0x00000000010000010000002000000000000000000000000000000000000000000000000000000000000000020000000000000000000001000000000000000000000000000000000000000808000000100000000000000000000000000000000000100000020000000000000000000800000040000000000000000010000000000020000000000000001000000000000000000000000002000000000000000000000000000000000000000000000000000000000000000002000000000000000000000002000000000000000000000000000000000000001000000000000020000800000000000000000000000000000000000000000000000000000000000000",
      "type": "0x2",
      "transactionHash": "0xd81a26a3ff5aa5e6a716331d04ebd0d98066be799134ebcb33f24ca66a61b46e",
      "transactionIndex": "0x18",
      "blockHash": "0x9363f4917aad4f3b2ba007128086825a1176f73b5e5f975204d0157119228dca",
      "blockNumber": "0x1da9d93",
      "gasUsed": "0xde225",
      "effectiveGasPrice": "0xf4297",
      "from": "0x96202ad391545175e026680425db160a5a3cf9e6",
      "to": "0xfd515d43fe2ec09275fad7940147bceb3b400ae6",
      "contractAddress": null,
      "l1BaseFeeScalar": "0x44d",
      "l1BlobBaseFee": "0x282",
      "l1BlobBaseFeeScalar": "0xa118b",
      "l1Fee": "0xf289",
      "l1GasPrice": "0x11",
      "l1GasUsed": "0x927"
    }
  ],
  "libraries": [],
  "pending": [],
  "returns": {},
  "timestamp": 1757977094,
  "chain": 84532,
  "commit": "404811c0"
}