{
  "transactions": [
    {
      "hash": "0xd8b77d563c844a3e3636498def69f873e06eb45efad14aed5ea1afb3c24e1a7c",
      "transactionType": "CALL",
      "contractName": null,
      "contractAddress": "0x7de9a0c146cc6a92f2592c5e4e2331b263de88b1",
      "function": "approve(address,uint256)",
      "arguments": [
        "0x89dd97893d019bF026D494757497B8c82876cFDE",
        "10000000"
      ],
      "transaction": {
        "from": "0x96202ad391545175e026680425db160a5a3cf9e6",
        "to": "0x7de9a0c146cc6a92f2592c5e4e2331b263de88b1",
        "gas": "0xfd03",
        "value": "0x0",
        "input": "0x095ea7b300000000000000000000000089dd97893d019bf026d494757497b8c82876cfde0000000000000000000000000000000000000000000000000000000000989680",
        "nonce": "0x17",
        "chainId": "0x14a34"
      },
      "additionalContracts": [],
      "isFixedGasLimit": false
    },
    {
      "hash": "0xb3e5cad21e9b6294b2e2c09c44bcefb7cf9310500a3811fd49ddeee3cf09a41d",
      "transactionType": "CALL",
      "contractName": null,
      "contractAddress": "0x89dd97893d019bf026d494757497b8c82876cfde",
      "function": "createCampaign(string,string,uint256,uint256,address)",
      "arguments": [
        "Taylor Swift | The Eras Tour",
        "TSBOG",
        "100000000",
        "30",
        "0x7de9a0c146Cc6A92F2592C5E4e2331B263De88B1"
      ],
      "transaction": {
        "from": "0x96202ad391545175e026680425db160a5a3cf9e6",
        "to": "0x89dd97893d019bf026d494757497b8c82876cfde",
        "gas": "0x12d4c7",
        "value": "0x0",
        "input": "0x2bfec04700000000000000000000000000000000000000000000000000000000000000a000000000000000000000000000000000000000000000000000000000000000e00000000000000000000000000000000000000000000000000000000005f5e100000000000000000000000000000000000000000000000000000000000000001e0000000000000000000000007de9a0c146cc6a92f2592c5e4e2331b263de88b1000000000000000000000000000000000000000000000000000000000000001c5461796c6f72205377696674207c20546865204572617320546f75720000000000000000000000000000000000000000000000000000000000000000000000055453424f47000000000000000000000000000000000000000000000000000000",
        "nonce": "0x18",
        "chainId": "0x14a34"
      },
      "additionalContracts": [
        {
          "transactionType": "CREATE",
          "address": "0x15c12eeb5853bb75737fb0fcf34fe8f09de49ee1",
          "initCode": "0x60e060405234801561000f575f80fd5b50604051610e0f380380610e0f83398101604081905261002e916101db565b828585600361003d8382610306565b50600461004a8282610306565b505050805f036100745760405163392e1e2760e01b81525f60048201526024015b60405180910390fd5b6080526001600160a01b0382166100cd5760405162461bcd60e51b815260206004820152601f60248201527f496e76616c69642066756e64696e67206d616e61676572206164647265737300604482015260640161006b565b60128160ff1611156101215760405162461bcd60e51b815260206004820152601960248201527f446563696d616c732063616e6e6f742065786365656420313800000000000000604482015260640161006b565b6001600160a01b0390911660a05260ff1660c052506103c0915050565b634e487b7160e01b5f52604160045260245ffd5b5f82601f830112610161575f80fd5b81516001600160401b0381111561017a5761017a61013e565b604051601f8201601f19908116603f011681016001600160401b03811182821017156101a8576101a861013e565b6040528181528382016020018510156101bf575f80fd5b8160208501602083015e5f918101602001919091529392505050565b5f805f805f60a086880312156101ef575f80fd5b85516001600160401b03811115610204575f80fd5b61021088828901610152565b602088015190965090506001600160401b0381111561022d575f80fd5b61023988828901610152565b60408801516060890151919650945090506001600160a01b038116811461025e575f80fd5b608087015190925060ff81168114610274575f80fd5b809150509295509295909350565b600181811c9082168061029657607f821691505b6020821081036102b457634e487b7160e01b5f52602260045260245ffd5b50919050565b601f82111561030157805f5260205f20601f840160051c810160208510156102df5750805b601f840160051c820191505b818110156102fe575f81556001016102eb565b50505b505050565b81516001600160401b0381111561031f5761031f61013e565b6103338161032d8454610282565b846102ba565b6020601f821160018114610365575f831561034e5750848201515b5f19600385901b1c1916600184901b1784556102fe565b5f84815260208120601f198516915b828110156103945787850151825560209485019460019092019101610374565b50848210156103b157868401515f19600387901b60f8161c191681555b50505050600190811b01905550565b60805160a05160c051610a106103ff5f395f61014001525f81816101d2015261033601525f818161016c0152818161044f01526107080152610a105ff3fe608060405234801561000f575f80fd5b50600436106100cf575f3560e01c806340c10f191161007d57806395d89b411161005857806395d89b411461020c578063a9059cbb14610214578063dd62ed3e14610227575f80fd5b806340c10f191461019057806370a08231146101a5578063775fa46d146101cd575f80fd5b806323b872dd116100ad57806323b872dd14610126578063313ce56714610139578063355274ea1461016a575f80fd5b806306fdde03146100d3578063095ea7b3146100f157806318160ddd14610114575b5f80fd5b6100db61025f565b6040516100e89190610880565b60405180910390f35b6101046100ff3660046108d0565b6102ef565b60405190151581526020016100e8565b6002545b6040519081526020016100e8565b6101046101343660046108f8565b610308565b60405160ff7f00000000000000000000000000000000000000000000000000000000000000001681526020016100e8565b7f0000000000000000000000000000000000000000000000000000000000000000610118565b6101a361019e3660046108d0565b61032b565b005b6101186101b3366004610932565b6001600160a01b03165f9081526020819052604090205490565b6101f47f000000000000000000000000000000000000000000000000000000000000000081565b6040516001600160a01b0390911681526020016100e8565b6100db6104de565b6101046102223660046108d0565b6104ed565b610118610235366004610952565b6001600160a01b039182165f90815260016020908152604080832093909416825291909152205490565b60606003805461026e90610983565b80601f016020809104026020016040519081016040528092919081815260200182805461029a90610983565b80156102e55780601f106102bc576101008083540402835291602001916102e5565b820191905f5260205f20905b8154815290600101906020018083116102c857829003601f168201915b5050505050905090565b5f336102fc8185856104fa565b60019150505b92915050565b5f3361031585828561050c565b610320858585610587565b506001949350505050565b336001600160a01b037f000000000000000000000000000000000000000000000000000000000000000016146103a85760405162461bcd60e51b815260206004820152601c60248201527f4f6e6c792046756e64696e674d616e616765722063616e206d696e740000000060448201526064015b60405180910390fd5b6001600160a01b0382166103fe5760405162461bcd60e51b815260206004820152601b60248201527f43616e6e6f74206d696e7420746f207a65726f20616464726573730000000000604482015260640161039f565b5f811161044d5760405162461bcd60e51b815260206004820152601760248201527f416d6f756e74206d75737420626520706f736974697665000000000000000000604482015260640161039f565b7f00000000000000000000000000000000000000000000000000000000000000008161047860025490565b61048291906109bb565b11156104d05760405162461bcd60e51b815260206004820152601260248201527f45786365656473206d617820737570706c790000000000000000000000000000604482015260640161039f565b6104da82826105e4565b5050565b60606004805461026e90610983565b5f336102fc818585610587565b6105078383836001610618565b505050565b6001600160a01b038381165f908152600160209081526040808320938616835292905220545f198114610581578181101561057357604051637dc7a0d960e11b81526001600160a01b0384166004820152602481018290526044810183905260640161039f565b61058184848484035f610618565b50505050565b6001600160a01b0383166105b057604051634b637e8f60e11b81525f600482015260240161039f565b6001600160a01b0382166105d95760405163ec442f0560e01b81525f600482015260240161039f565b6105078383836106ea565b6001600160a01b03821661060d5760405163ec442f0560e01b81525f600482015260240161039f565b6104da5f83836106ea565b6001600160a01b0384166106415760405163e602df0560e01b81525f600482015260240161039f565b6001600160a01b03831661066a57604051634a1406b160e11b81525f600482015260240161039f565b6001600160a01b038085165f908152600160209081526040808320938716835292905220829055801561058157826001600160a01b0316846001600160a01b03167f8c5be1e5ebec7d5bd14f71427d1e84f3dd0314c0f7b2291e5b200ac8c7c3b925846040516106dc91815260200190565b60405180910390a350505050565b6106f583838361075a565b6001600160a01b038316610507576002547f000000000000000000000000000000000000000000000000000000000000000090818111156107535760405163279e7e1560e21b8152600481018290526024810183905260440161039f565b5050505050565b6001600160a01b038316610784578060025f82825461077991906109bb565b909155506107f49050565b6001600160a01b0383165f90815260208190526040902054818110156107d65760405163391434e360e21b81526001600160a01b0385166004820152602481018290526044810183905260640161039f565b6001600160a01b0384165f9081526020819052604090209082900390555b6001600160a01b0382166108105760028054829003905561082e565b6001600160a01b0382165f9081526020819052604090208054820190555b816001600160a01b0316836001600160a01b03167fddf252ad1be2c89b69c2b068fc378daa952ba7f163c4a11628f55a4df523b3ef8360405161087391815260200190565b60405180910390a3505050565b602081525f82518060208401528060208501604085015e5f604082850101526040601f19601f83011684010191505092915050565b80356001600160a01b03811681146108cb575f80fd5b919050565b5f80604083850312156108e1575f80fd5b6108ea836108b5565b946020939093013593505050565b5f805f6060848603121561090a575f80fd5b610913846108b5565b9250610921602085016108b5565b929592945050506040919091013590565b5f60208284031215610942575f80fd5b61094b826108b5565b9392505050565b5f8060408385031215610963575f80fd5b61096c836108b5565b915061097a602084016108b5565b90509250929050565b600181811c9082168061099757607f821691505b6020821081036109b557634e487b7160e01b5f52602260045260245ffd5b50919050565b8082018082111561030257634e487b7160e01b5f52601160045260245ffdfea26469706673582212205dfa38883c8a95ddc5fe81854f7f9c38c40eec4a60d39ee0465ac9b2e48354fe64736f6c634300081a003300000000000000000000000000000000000000000000000000000000000000a000000000000000000000000000000000000000000000000000000000000000e0000000000000000000000000000000000000000000000008670e9ec6598c000000000000000000000000000089dd97893d019bf026d494757497b8c82876cfde0000000000000000000000000000000000000000000000000000000000000012000000000000000000000000000000000000000000000000000000000000001c5461796c6f72205377696674207c20546865204572617320546f75720000000000000000000000000000000000000000000000000000000000000000000000055453424f47000000000000000000000000000000000000000000000000000000"
        }
      ],
      "isFixedGasLimit": false
    }
  ],
  "receipts": [
    {
      "status": "0x1",
      "cumulativeGasUsed": "0xf25181",
      "logs": [
        {
          "address": "0x7de9a0c146cc6a92f2592c5e4e2331b263de88b1",
          "topics": [
            "0x8c5be1e5ebec7d5bd14f71427d1e84f3dd0314c0f7b2291e5b200ac8c7c3b925",
            "0x00000000000000000000000096202ad391545175e026680425db160a5a3cf9e6",
            "0x00000000000000000000000089dd97893d019bf026d494757497b8c82876cfde"
          ],
          "data": "0x0000000000000000000000000000000000000000000000000000000000989680",
          "blockHash": "0xe07dff57601452d67b23591c302592ad92d64ee7bff8b788af362c76651048cc",
          "blockNumber": "0x1d01996",
          "blockTimestamp": "0x68b3920c",
          "transactionHash": "0xd8b77d563c844a3e3636498def69f873e06eb45efad14aed5ea1afb3c24e1a7c",
          "transactionIndex": "0x15",
          "logIndex": "0x1d4",
          "removed": false
        }
      ],
      "logsBloom": "0x00000000010000010200000000000000000000004000000000000000000000001000000000000000000000000000000000000000000000000000000000200008000000000000000000000000000000000000000000000000000000000000000000000000000000000000000000000000000020000000000000000000000000000000000000000000000000000000000000000000000000000000000000000000020010000000000000000000000000000000000000000000000000000000000000000000000000000000000000000000000000000000001000000000000000000010000000000000000000000000000000000000000000000000000000000000",
      "type": "0x2",
      "transactionHash": "0xd8b77d563c844a3e3636498def69f873e06eb45efad14aed5ea1afb3c24e1a7c",
      "transactionIndex": "0x15",
      "blockHash": "0xe07dff57601452d67b23591c302592ad92d64ee7bff8b788af362c76651048cc",
      "blockNumber": "0x1d01996",
      "gasUsed": "0xb72e",
      "effectiveGasPrice": "0xf427d",
      "from": "0x96202ad391545175e026680425db160a5a3cf9e6",
      "to": "0x7de9a0c146cc6a92f2592c5e4e2331b263de88b1",
      "contractAddress": null,
      "l1BaseFeeScalar": "0x44d",
      "l1BlobBaseFee": "0x1",
      "l1BlobBaseFeeScalar": "0xa118b",
      "l1Fee": "0x3830a4",
      "l1GasPrice": "0x1fe586",
      "l1GasUsed": "0x640"
    },
    {
      "status": "0x1",
      "cumulativeGasUsed": "0xff31c4",
      "logs": [
        {
          "address": "0x7de9a0c146cc6a92f2592c5e4e2331b263de88b1",
          "topics": [
            "0xddf252ad1be2c89b69c2b068fc378daa952ba7f163c4a11628f55a4df523b3ef",
            "0x00000000000000000000000096202ad391545175e026680425db160a5a3cf9e6",
            "0x00000000000000000000000089dd97893d019bf026d494757497b8c82876cfde"
          ],
          "data": "0x0000000000000000000000000000000000000000000000000000000000989680",
          "blockHash": "0xe07dff57601452d67b23591c302592ad92d64ee7bff8b788af362c76651048cc",
          "blockNumber": "0x1d01996",
          "blockTimestamp": "0x68b3920c",
          "transactionHash": "0xb3e5cad21e9b6294b2e2c09c44bcefb7cf9310500a3811fd49ddeee3cf09a41d",
          "transactionIndex": "0x16",
          "logIndex": "0x1d5",
          "removed": false
        },
        {
          "address": "0x89dd97893d019bf026d494757497b8c82876cfde",
          "topics": [
            "0x77306f78625dc94a22e2f0fd1090331ecdcd2e203736610b225e7cf370e945d3",
            "0x0000000000000000000000000000000000000000000000000000000000000000",
            "0x00000000000000000000000096202ad391545175e026680425db160a5a3cf9e6"
          ],
          "data": "0x00000000000000000000000015c12eeb5853bb75737fb0fcf34fe8f09de49ee10000000000000000000000007de9a0c146cc6a92f2592c5e4e2331b263de88b10000000000000000000000000000000000000000000000000000000005f5e10000000000000000000000000000000000000000000000000000000000009896800000000000000000000000000000000000000000000000000000000068db1f0c",
          "blockHash": "0xe07dff57601452d67b23591c302592ad92d64ee7bff8b788af362c76651048cc",
          "blockNumber": "0x1d01996",
          "blockTimestamp": "0x68b3920c",
          "transactionHash": "0xb3e5cad21e9b6294b2e2c09c44bcefb7cf9310500a3811fd49ddeee3cf09a41d",
          "transactionIndex": "0x16",
          "logIndex": "0x1d6",
          "removed": false
        }
      ],
      "logsBloom": "0x00000000010000010200002000000000000000004000000000000000000000001000000020000000000000000000000000000000000000000000000000000008000000000000000000000008000000000000000000000000000000000000000000000000020000000000000000000800000020000000000000000010000000000000000000000000001000000000000000000000000000000000000000000000000010000000000000000000000100000000000000000002000000010000000000000002000000000000000000000000000000000000001000000000000020000000000000000000000000000000000000000000000000000000000000000000",
      "type": "0x2",
      "transactionHash": "0xb3e5cad21e9b6294b2e2c09c44bcefb7cf9310500a3811fd49ddeee3cf09a41d",
      "transactionIndex": "0x16",
      "blockHash": "0xe07dff57601452d67b23591c302592ad92d64ee7bff8b788af362c76651048cc",
      "blockNumber": "0x1d01996",
      "gasUsed": "0xce043",
      "effectiveGasPrice": "0xf427d",
      "from": "0x96202ad391545175e026680425db160a5a3cf9e6",
      "to": "0x89dd97893d019bf026d494757497b8c82876cfde",
      "contractAddress": null,
      "l1BaseFeeScalar": "0x44d",
      "l1BlobBaseFee": "0x1",
      "l1BlobBaseFeeScalar": "0xa118b",
      "l1Fee": "0x524c3d",
      "l1GasPrice": "0x1fe586",
      "l1GasUsed": "0x927"
    }
  ],
  "libraries": [],
  "pending": [],
  "returns": {},
  "timestamp": 1756598795,
  "chain": 84532,
  "commit": "e4ee1003"
}