{
  "transactions": [
    {
      "hash": "0x675d23434618416b383074a107b105fdbb04207acdf83c842235ad146d66c1a4",
      "transactionType": "CALL",
      "contractName": null,
      "contractAddress": "0x7de9a0c146cc6a92f2592c5e4e2331b263de88b1",
      "function": "approve(address,uint256)",
      "arguments": [
        "0x013089a6B8E738B638fBb84D94B9AAFa1dCE6060",
        "10000000"
      ],
      "transaction": {
        "from": "0x96202ad391545175e026680425db160a5a3cf9e6",
        "to": "0x7de9a0c146cc6a92f2592c5e4e2331b263de88b1",
        "gas": "0xfd03",
        "value": "0x0",
        "input": "0x095ea7b3000000000000000000000000013089a6b8e738b638fbb84d94b9aafa1dce60600000000000000000000000000000000000000000000000000000000000989680",
        "nonce": "0x6",
        "chainId": "0x14a34"
      },
      "additionalContracts": [],
      "isFixedGasLimit": false
    },
    {
      "hash": "0x3f9cdf0faa2cea4713256e6418f07c32e6a42b45c4c04ce45d2b431f915bb968",
      "transactionType": "CALL",
      "contractName": null,
      "contractAddress": "0x013089a6b8e738b638fbb84d94b9aafa1dce6060",
      "function": "createCampaign(string,string,uint256,uint256,address)",
      "arguments": [
        "Taylor Swift | The Eras Tour",
        "TSBOG",
        "100000000",
        "30",
        "0x7de9a0c146Cc6A92F2592C5E4e2331B263De88B1"
      ],
      "transaction": {
        "from": "0x96202ad391545175e026680425db160a5a3cf9e6",
        "to": "0x013089a6b8e738b638fbb84d94b9aafa1dce6060",
        "gas": "0x118fd6",
        "value": "0x0",
        "input": "0x2bfec04700000000000000000000000000000000000000000000000000000000000000a000000000000000000000000000000000000000000000000000000000000000e00000000000000000000000000000000000000000000000000000000005f5e100000000000000000000000000000000000000000000000000000000000000001e0000000000000000000000007de9a0c146cc6a92f2592c5e4e2331b263de88b1000000000000000000000000000000000000000000000000000000000000001c5461796c6f72205377696674207c20546865204572617320546f75720000000000000000000000000000000000000000000000000000000000000000000000055453424f47000000000000000000000000000000000000000000000000000000",
        "nonce": "0x7",
        "chainId": "0x14a34"
      },
      "additionalContracts": [
        {
          "transactionType": "CREATE",
          "address": "0xfcfdbdf4360eedf2b90feaaf881ba91d50d4ad26",
          "initCode": "0x60c060405234801561000f575f80fd5b50604051610d6e380380610d6e83398101604081905261002e9161017f565b818484600361003d8382610290565b50600461004a8282610290565b505050805f036100745760405163392e1e2760e01b81525f60048201526024015b60405180910390fd5b6080526001600160a01b0381166100cd5760405162461bcd60e51b815260206004820152601f60248201527f496e76616c69642066756e64696e67206d616e61676572206164647265737300604482015260640161006b565b6001600160a01b031660a0525061034a915050565b634e487b7160e01b5f52604160045260245ffd5b5f82601f830112610105575f80fd5b81516001600160401b0381111561011e5761011e6100e2565b604051601f8201601f19908116603f011681016001600160401b038111828210171561014c5761014c6100e2565b604052818152838201602001851015610163575f80fd5b8160208501602083015e5f918101602001919091529392505050565b5f805f8060808587031215610192575f80fd5b84516001600160401b038111156101a7575f80fd5b6101b3878288016100f6565b602087015190955090506001600160401b038111156101d0575f80fd5b6101dc878288016100f6565b60408701516060880151919550935090506001600160a01b0381168114610201575f80fd5b939692955090935050565b600181811c9082168061022057607f821691505b60208210810361023e57634e487b7160e01b5f52602260045260245ffd5b50919050565b601f82111561028b57805f5260205f20601f840160051c810160208510156102695750805b601f840160051c820191505b81811015610288575f8155600101610275565b50505b505050565b81516001600160401b038111156102a9576102a96100e2565b6102bd816102b7845461020c565b84610244565b6020601f8211600181146102ef575f83156102d85750848201515b5f19600385901b1c1916600184901b178455610288565b5f84815260208120601f198516915b8281101561031e57878501518255602094850194600190920191016102fe565b508482101561033b57868401515f19600387901b60f8161c191681555b50505050600190811b01905550565b60805160a0516109ee6103805f395f81816101b0015261031401525f818161014a0152818161042d01526106e601526109ee5ff3fe608060405234801561000f575f80fd5b50600436106100cf575f3560e01c806340c10f191161007d57806395d89b411161005857806395d89b41146101ea578063a9059cbb146101f2578063dd62ed3e14610205575f80fd5b806340c10f191461016e57806370a0823114610183578063775fa46d146101ab575f80fd5b806323b872dd116100ad57806323b872dd14610126578063313ce56714610139578063355274ea14610148575f80fd5b806306fdde03146100d3578063095ea7b3146100f157806318160ddd14610114575b5f80fd5b6100db61023d565b6040516100e8919061085e565b60405180910390f35b6101046100ff3660046108ae565b6102cd565b60405190151581526020016100e8565b6002545b6040519081526020016100e8565b6101046101343660046108d6565b6102e6565b604051601281526020016100e8565b7f0000000000000000000000000000000000000000000000000000000000000000610118565b61018161017c3660046108ae565b610309565b005b610118610191366004610910565b6001600160a01b03165f9081526020819052604090205490565b6101d27f000000000000000000000000000000000000000000000000000000000000000081565b6040516001600160a01b0390911681526020016100e8565b6100db6104bc565b6101046102003660046108ae565b6104cb565b610118610213366004610930565b6001600160a01b039182165f90815260016020908152604080832093909416825291909152205490565b60606003805461024c90610961565b80601f016020809104026020016040519081016040528092919081815260200182805461027890610961565b80156102c35780601f1061029a576101008083540402835291602001916102c3565b820191905f5260205f20905b8154815290600101906020018083116102a657829003601f168201915b5050505050905090565b5f336102da8185856104d8565b60019150505b92915050565b5f336102f38582856104ea565b6102fe858585610565565b506001949350505050565b336001600160a01b037f000000000000000000000000000000000000000000000000000000000000000016146103865760405162461bcd60e51b815260206004820152601c60248201527f4f6e6c792046756e64696e674d616e616765722063616e206d696e740000000060448201526064015b60405180910390fd5b6001600160a01b0382166103dc5760405162461bcd60e51b815260206004820152601b60248201527f43616e6e6f74206d696e7420746f207a65726f20616464726573730000000000604482015260640161037d565b5f811161042b5760405162461bcd60e51b815260206004820152601760248201527f416d6f756e74206d75737420626520706f736974697665000000000000000000604482015260640161037d565b7f00000000000000000000000000000000000000000000000000000000000000008161045660025490565b6104609190610999565b11156104ae5760405162461bcd60e51b815260206004820152601260248201527f45786365656473206d617820737570706c790000000000000000000000000000604482015260640161037d565b6104b882826105c2565b5050565b60606004805461024c90610961565b5f336102da818585610565565b6104e583838360016105f6565b505050565b6001600160a01b038381165f908152600160209081526040808320938616835292905220545f19811461055f578181101561055157604051637dc7a0d960e11b81526001600160a01b0384166004820152602481018290526044810183905260640161037d565b61055f84848484035f6105f6565b50505050565b6001600160a01b03831661058e57604051634b637e8f60e11b81525f600482015260240161037d565b6001600160a01b0382166105b75760405163ec442f0560e01b81525f600482015260240161037d565b6104e58383836106c8565b6001600160a01b0382166105eb5760405163ec442f0560e01b81525f600482015260240161037d565b6104b85f83836106c8565b6001600160a01b03841661061f5760405163e602df0560e01b81525f600482015260240161037d565b6001600160a01b03831661064857604051634a1406b160e11b81525f600482015260240161037d565b6001600160a01b038085165f908152600160209081526040808320938716835292905220829055801561055f57826001600160a01b0316846001600160a01b03167f8c5be1e5ebec7d5bd14f71427d1e84f3dd0314c0f7b2291e5b200ac8c7c3b925846040516106ba91815260200190565b60405180910390a350505050565b6106d3838383610738565b6001600160a01b0383166104e5576002547f000000000000000000000000000000000000000000000000000000000000000090818111156107315760405163279e7e1560e21b8152600481018290526024810183905260440161037d565b5050505050565b6001600160a01b038316610762578060025f8282546107579190610999565b909155506107d29050565b6001600160a01b0383165f90815260208190526040902054818110156107b45760405163391434e360e21b81526001600160a01b0385166004820152602481018290526044810183905260640161037d565b6001600160a01b0384165f9081526020819052604090209082900390555b6001600160a01b0382166107ee5760028054829003905561080c565b6001600160a01b0382165f9081526020819052604090208054820190555b816001600160a01b0316836001600160a01b03167fddf252ad1be2c89b69c2b068fc378daa952ba7f163c4a11628f55a4df523b3ef8360405161085191815260200190565b60405180910390a3505050565b602081525f82518060208401528060208501604085015e5f604082850101526040601f19601f83011684010191505092915050565b80356001600160a01b03811681146108a9575f80fd5b919050565b5f80604083850312156108bf575f80fd5b6108c883610893565b946020939093013593505050565b5f805f606084860312156108e8575f80fd5b6108f184610893565b92506108ff60208501610893565b929592945050506040919091013590565b5f60208284031215610920575f80fd5b61092982610893565b9392505050565b5f8060408385031215610941575f80fd5b61094a83610893565b915061095860208401610893565b90509250929050565b600181811c9082168061097557607f821691505b60208210810361099357634e487b7160e01b5f52602260045260245ffd5b50919050565b808201808211156102e057634e487b7160e01b5f52601160045260245ffdfea264697066735822122083088e34f9826831cbf43844df680369d63a24d32c06b24cf376e195a250c14664736f6c634300081a0033000000000000000000000000000000000000000000000000000000000000008000000000000000000000000000000000000000000000000000000000000000c000000000000000000000000000000000000000000000000000000000093d1cc0000000000000000000000000013089a6b8e738b638fbb84d94b9aafa1dce6060000000000000000000000000000000000000000000000000000000000000001c5461796c6f72205377696674207c20546865204572617320546f75720000000000000000000000000000000000000000000000000000000000000000000000055453424f47000000000000000000000000000000000000000000000000000000"
        }
      ],
      "isFixedGasLimit": false
    }
  ],
  "receipts": [
    {
      "status": "0x1",
      "cumulativeGasUsed": "0x13218c8",
      "logs": [
        {
          "address": "0x7de9a0c146cc6a92f2592c5e4e2331b263de88b1",
          "topics": [
            "0x8c5be1e5ebec7d5bd14f71427d1e84f3dd0314c0f7b2291e5b200ac8c7c3b925",
            "0x00000000000000000000000096202ad391545175e026680425db160a5a3cf9e6",
            "0x000000000000000000000000013089a6b8e738b638fbb84d94b9aafa1dce6060"
          ],
          "data": "0x0000000000000000000000000000000000000000000000000000000000989680",
          "blockHash": "0x666013318eea29b26ffc62d0ef9e96a453abe678af2e211516e49cbfd3dd1bec",
          "blockNumber": "0x1cff4da",
          "blockTimestamp": "0x68b34894",
          "transactionHash": "0x675d23434618416b383074a107b105fdbb04207acdf83c842235ad146d66c1a4",
          "transactionIndex": "0x1c",
          "logIndex": "0x1b4",
          "removed": false
        }
      ],
      "logsBloom": "0x00000000010000010000000000000000008000004000000000000000000000001000000000000000000000000000000000000000000000000000000000200000000000000000000000000000000000000000000000000000000000000000000000000000000000000000000000000000000020000000000000000000000000800000000000000000000000000000000000000000000000000000000000000000020000000000000000000000000000000000000000020000000000000000000000000000000000000000000000000000000000000000001000000000000000000010000000000000000000000000000000000000000000000000000000000000",
      "type": "0x2",
      "transactionHash": "0x675d23434618416b383074a107b105fdbb04207acdf83c842235ad146d66c1a4",
      "transactionIndex": "0x1c",
      "blockHash": "0x666013318eea29b26ffc62d0ef9e96a453abe678af2e211516e49cbfd3dd1bec",
      "blockNumber": "0x1cff4da",
      "gasUsed": "0xb72e",
      "effectiveGasPrice": "0xf4284",
      "from": "0x96202ad391545175e026680425db160a5a3cf9e6",
      "to": "0x7de9a0c146cc6a92f2592c5e4e2331b263de88b1",
      "contractAddress": null,
      "l1BaseFeeScalar": "0x44d",
      "l1BlobBaseFee": "0x1",
      "l1BlobBaseFeeScalar": "0xa118b",
      "l1Fee": "0xb4df153",
      "l1GasPrice": "0x66acaa6",
      "l1GasUsed": "0x640"
    },
    {
      "status": "0x1",
      "cumulativeGasUsed": "0x13ecfb0",
      "logs": [
        {
          "address": "0x7de9a0c146cc6a92f2592c5e4e2331b263de88b1",
          "topics": [
            "0xddf252ad1be2c89b69c2b068fc378daa952ba7f163c4a11628f55a4df523b3ef",
            "0x00000000000000000000000096202ad391545175e026680425db160a5a3cf9e6",
            "0x000000000000000000000000013089a6b8e738b638fbb84d94b9aafa1dce6060"
          ],
          "data": "0x0000000000000000000000000000000000000000000000000000000000989680",
          "blockHash": "0x666013318eea29b26ffc62d0ef9e96a453abe678af2e211516e49cbfd3dd1bec",
          "blockNumber": "0x1cff4da",
          "blockTimestamp": "0x68b34894",
          "transactionHash": "0x3f9cdf0faa2cea4713256e6418f07c32e6a42b45c4c04ce45d2b431f915bb968",
          "transactionIndex": "0x1d",
          "logIndex": "0x1b5",
          "removed": false
        },
        {
          "address": "0x013089a6b8e738b638fbb84d94b9aafa1dce6060",
          "topics": [
            "0x77306f78625dc94a22e2f0fd1090331ecdcd2e203736610b225e7cf370e945d3",
            "0x0000000000000000000000000000000000000000000000000000000000000000",
            "0x00000000000000000000000096202ad391545175e026680425db160a5a3cf9e6"
          ],
          "data": "0x000000000000000000000000fcfdbdf4360eedf2b90feaaf881ba91d50d4ad260000000000000000000000007de9a0c146cc6a92f2592c5e4e2331b263de88b10000000000000000000000000000000000000000000000000000000005f5e10000000000000000000000000000000000000000000000000000000000009896800000000000000000000000000000000000000000000000000000000068dad594",
          "blockHash": "0x666013318eea29b26ffc62d0ef9e96a453abe678af2e211516e49cbfd3dd1bec",
          "blockNumber": "0x1cff4da",
          "blockTimestamp": "0x68b34894",
          "transactionHash": "0x3f9cdf0faa2cea4713256e6418f07c32e6a42b45c4c04ce45d2b431f915bb968",
          "transactionIndex": "0x1d",
          "logIndex": "0x1b6",
          "removed": false
        }
      ],
      "logsBloom": "0x00000000010000010000002000000000008000004000000000000000000000001000000000000000000000000000000000000000000000000000000000000000000000000000000000000008000000000000000000000000000000000000000000000000220000000000000000000800000020000000000000000010000000800000000000000000001000000000000000000000000000000000000000800000000000000000000000000000000000000000000000020002000000000000000000000002000000000000000000000000000000000000001000000000000020000000000000000000000000000000000010000000000000000000000000000000",
      "type": "0x2",
      "transactionHash": "0x3f9cdf0faa2cea4713256e6418f07c32e6a42b45c4c04ce45d2b431f915bb968",
      "transactionIndex": "0x1d",
      "blockHash": "0x666013318eea29b26ffc62d0ef9e96a453abe678af2e211516e49cbfd3dd1bec",
      "blockNumber": "0x1cff4da",
      "gasUsed": "0xcb6e8",
      "effectiveGasPrice": "0xf4284",
      "from": "0x96202ad391545175e026680425db160a5a3cf9e6",
      "to": "0x013089a6b8e738b638fbb84d94b9aafa1dce6060",
      "contractAddress": null,
      "l1BaseFeeScalar": "0x44d",
      "l1BlobBaseFee": "0x1",
      "l1BlobBaseFeeScalar": "0xa118b",
      "l1Fee": "0x108e911c",
      "l1GasPrice": "0x66acaa6",
      "l1GasUsed": "0x927"
    }
  ],
  "libraries": [],
  "pending": [],
  "returns": {},
  "timestamp": 1756579988,
  "chain": 84532,
  "commit": "622e4383"
}